S00F0000454D475F414D532E73726563FC
S113000071C000008EC000008CC000008AC00000D7
S113001088C0000013C3000084C0000082C0000038
S113002080C000007EC000007CC000007AC00000D8
S113003078C0000076C0000074C0000072C00000E8
S113004070C000006EC000006CC000006AC00000F8
S113005068C0000066C0000064C0000062C0000008
S113006060C000005EC000005CC000005AC0000018
S113007058C00000AAC4000054C0000052C00000D0
S113008050C000004EC000004CC000004AC0000038
S113009048C0000046C0000044C0000042C0000048
S11300A040C000003EC000003CC000003AC0000058
S11300B038C0000036C0000034C0000032C0000068
S11300C030C000002EC000002CC000002AC0000078
S11300D028C0000026C0000024C0000022C0000088
S11300E020C0000011241FBECFEFD1E2DEBFCDBF80
S11300F000E00CBF12E0A0E0B2E0E4EFF0E100E0C9
S11301000BBF02C007900D92AA34B107D9F726E0BD
S1130110AAE4B2E001C01D92A631B207E1F798D477
S1130120E7C76ECF84B38B7F84BB84B3846084BB06
S1130130089588B98BB18F778BB984B38D7F84BBD5
S1130140F1DF0000089592B988B98BB180688BB94A
S113015084B38D7F84BBE6DF000008958FEF81B9FF
S113016087B983B3876083BB8AB180688AB984B353
S11301708E7F84BB2FEF80E792E021508040904037
S1130180E1F700C0000084B3816084BB2FEF8BEDE6
S113019095E0215080409040E1F700C0000081E0EC
S11301A0C8DF8FE19EE40197F1F700C0000088E208
S11301B0C0DF8FECBEDF80E090E0C5DF81EC90E033
S11301C0C2DF80E390E0BFDF8DEEB3DF84E690E032
S11301D0BADF83E090E0B7DF82E190E0B4DF81E84A
S11301E090E0B1DF88EEA5DF85E890E0ACDF80E049
S11301F090E0A9DF88E790E0A6DF8BEC9ADF89E343
S113020090E0A1DF8CE290E09EDF80E090E09BDF55
S113021084E390E098DF82E090E095DF87EF89DF68
S113022080E290E090DF8AEE84DF80E090E08BDF74
S113023080E090E088DF80EC7CDF83E290E083DF85
S113024081EC77DF80E190E07EDF85EC72DF8EE386
S113025090E079DF88E290E076DF87EC6ADF86E879
S113026090E071DF86E365DF88E490E06CDF8AE389
S113027060DF85E590E067DF81EB5BDF80E090E0A5
S113028062DF88E190E05FDF86EB53DF88E090E097
S11302905ADF82E890E057DF87E290E054DF82EF94
S11302A048DF80E090E04FDF86E243DF81E090E0CA
S11302B04ADF80EE3EDF8FE090E045DF81E390E0AF
S11302C042DF8BE290E03FDF8CE090E03CDF8EE0A9
S11302D090E039DF88E090E036DF8EE490E033DFB1
S11302E081EF90E030DF87E390E02DDF87E090E05E
S11302F02ADF80E190E027DF83E090E024DF8EE0D6
S113030090E021DF89E090E01EDF80E090E01BDFD9
S113031081EE0FDF80E090E016DF8EE090E013DFE7
S113032084E190E010DF83E090E00DDF81E190E074
S11303300ADF87E090E007DF81E390E004DF81ECEF
S113034090E001DF88E490E0FEDE88E090E0FBDEF0
S11303508FE090E0F8DE8CE090E0F5DE81E390E061
S1130360F2DE86E390E0EFDE8FE090E0ECDE81E108
S1130370E0DE9FEF2BED85E0915020408040E1F7D7
S113038000C0000089E2D5DE8CE2D3CE089590E06F
S1130390982F8827990F990F990F20E2629FB00137
S11303A01124862B972B842BCECE08950F931F9365
S11303B0CF93DF938C01EB018AE2BBDE812F90E0C7
S11303C0C2DEC8019927BFDE8D2F90E0BCDECE01CE
S11303D09927B9DEDF91CF911F910F9108950F9363
S11303E01F93CF93DF938C01EB018BE2A2DE812F6D
S11303F090E0A9DEC8019927A6DE8D2F90E0A3DE48
S1130400CE019927A0DEDF91CF911F910F9108951E
S1130410CF92DF92EF92FF92CF93DF93C82FD0E079
S1130420DC2FCC27DD0FDD0FDD0F20E2629FC00142
S11304301124C82BD92BC42B6FEE70E080E090E020
S1130440B5DF6FE371E080E090E0C9DF8CE271DE3C
S1130450C12CD12C760107C0CE0175DE8FEFC81AEE
S1130460D80AE80AF80AC1142CE2D20621E0E2060E
S1130470F10490F3DF91CF91FF90EF90DF90CF9054
S113048008956F927F928F929F92AF92BF92CF9274
S1130490DF92EF920F931F93CF93DF934C015B0195
S11304A0122F6C01C40ED51E81E0C81AD108460F64
S11304B0571F3A0181E0681A7108B601C40176DF5A
S11304C0B301C5018CDF8CE234DE0DC04E2D602FEC
S11304D0812F5DDF219601C0E401CC16DD06B0F763
S11304E08FEFA81AB80A6A147B04B0F7DF91CF9192
S11304F01F910F91EF90DF90CF90BF90AF909F909E
S11305008F907F906F9008959091C00095FFFCCFDD
S11305108093C6000895CF93DF93EC0102C0219627
S1130520F3DF88818111FBCFDF91CF9108950F9381
S11305301F93CF93DF93CDB7DEB727970FB6F89409
S1130540DEBF0FBECDBF9F938F9380E092E09F9359
S11305508F931F9287E08F938E010F5F1F4F1F931E
S11305600F93DDD2C801D7DF0FB6F894DEBF0FBEFC
S1130570CDBF27960FB6F894DEBF0FBECDBFDF9177
S1130580CF911F910F91089527E030E023C0482FA9
S113059050E0022E02C0559547950A94E2F740FFB9
S11305A004C094B3906294BB03C094B39F7D94BB86
S11305B0E2E0F1E090819860908395E09A95F1F7FC
S11305C000009081977F908395E09A95F1F7000061
S11305D0215031093323DCF6089520E030E040E077
S11305E050E018C0440F551FE2E0F1E0908198609C
S11305F0908385E08A95F1F7000065994160E2E017
S1130600F1E09081977F908385E08A95F1F700006F
S11306102F5F3F4F2C3031052CF3CA010895EAE6D1
S1130620F0E080818260808380818E7F80838CB3C0
S113063080618CBB8DB380618DBB08951F920F9236
S11306400FB60F9211248F9381E080934A028F9109
S11306500F900FBE0F901F9018958EB188608EB9C1
S11306608DB188608DB9E1E0F1E08081886080839C
S113067083B3806283BB8DB18F7D8DB98DB18F7E45
S11306808DB98EB180618EB908950F931F93CF9366
S1130690DF938C01EB018EB1877F8EB980E974DF23
S11306A09CDFF8019183808380ED6EDF96DF998370
S11306B088838EB188608EB9649BFECFDF91CF9121
S11306C01F910F910895EF920F93CF93DF9300D072
S11306D01F92CDB7DEB74FE16EE38FE199DE0F2EA7
S11306E0FFE1EF2EF02D00E020E044E150E06CE269
S11306F071E080E090E0C5DE80914A028823E1F356
S1130700649931C0BE016D5F7F4FCE010196BDDF9C
S113071089819A8190935202809351028B819C81AA
S113072090934E0280934D0283E092E0F4DE809138
S1130730510290915202FBDE8BE092E0ECDE80915C
S11307404D0290914E02F3DE85E192E0E4DE649B7B
S1130750FECF8FE39CE90197F1F700C000004FE161
S11307606EE38FE155DE10924A029FEF29EF80E09D
S1130770915020408040E1F700C000000F2EFFE1BF
S1130780EF2EF02D00E020E044E150E060E070E066
S11307908CED90E076DE80914A028823E1F310929A
S11307A04A02649931C0BE016D5F7F4FCE0101964C
S11307B06CDF89819A819093500280934F028B81E0
S11307C09C8190934C0280934B0288E192E0A3DEDB
S11307D080914F0290915002AADE80E292E09BDE6B
S11307E080914B0290914C02A2DE85E192E093DE6F
S11307F08FE39CE90197F1F700C00000649BFECFF2
S11308004FE16EE38FE104DE10924A020F900F90E5
S11308100F900F90DF91CF910F91EF9008954F9229
S11308205F926F927F92AF92BF92CF92DF92EF92DC
S1130830FF920F931F93CF93DF9300D01F92CDB7F6
S1130840DEB77C0190914A029923E1F364997FC059
S11308508B01BE016D5F7F4FCE01019616DF409183
S11308604F0250915002E0915102F09152024E1702
S11308705F0759F0C0904B02D0904C02A0904D02FB
S1130880B0904E02CA14DB0439F4F70111821082CD
S1130890F801118210825DC029813A812E1B3F0B21
S11308A0A0E4B1E02DD19A012E1B3F0B40E050E0B3
S11308B00BD129013A012B813C812A193B09A0EF74
S11308C0B0E01ED196012A193B0940E050E0FCD06B
S11308D077201CF4412C512C3201F1E44F16F1E045
S11308E05F066104710434F0412C512C3201689488
S11308F046F8539455231CF420E030E0A901213F2D
S113090031054105510524F020EF30E040E050E08E
S1130910F70151824082F801318320838AE292E018
S1130920FADDF7018081918102DE89E392E0F3DD53
S1130930F80180819181FBDD85E192E0ECDD649B2F
S1130940FECF8FE39CE90197F1F700C000001092FD
S11309504A020F900F900F900F90DF91CF911F914B
S11309600F91FF90EF90DF90CF90BF90AF907F906A
S11309706F905F904F9008959093C5008093C4004A
S113098088E08093C10086E08093C2000895E1E08E
S1130990F1E080818062808388E08093A0008BE115
S11309A08093A10087E893E19093A7008093A60029
S11309B0089580E480937C00EAE7F0E08FE8808388
S11309C0789480818064808308951F920F920FB67B
S11309D00F9211240BB60F922F933F938F939F93F3
S11309E0EF93FF9380915402909155029C012F5FE5
S11309F03F4F309355022093540220917800309158
S1130A007900880F991FFC01EA5AFD4F3183208336
S1130A108091540290915502803E914038F010929A
S1130A2055021092540281E080935302EAE7F0E009
S1130A30808180648083FF91EF919F918F913F919A
S1130A402F910F900BBE0F900FBE0F901F90189513
S1130A50CF93DF9300D01F92CDB7DEB787E690E047
S1130A608BDFA7DF94DF7ADBDADD7894F6DD2BDE2B
S1130A70BE016D5F7F4FCE010196D1DE84B18068E7
S1130A8084B9FFCFA1E21A2EAA1BBB1BFD010DC026
S1130A90AA1FBB1FEE1FFF1FA217B307E407F5072A
S1130AA020F0A21BB30BE40BF50B661F771F881F06
S1130AB0991F1A9469F760957095809590959B019C
S1130AC0AC01BD01CF010895052E97FB16F40094E7
S1130AD00FD057FD05D0D6DF07FC02D046F408C07E
S1130AE050954095309521953F4F4F4F5F4F089556
S1130AF090958095709561957F4F8F4F9F4F089586
S1130B00A29FB001B39FC001A39F700D811D11244A
S1130B10911DB29F700D811D1124911D08950F9395
S1130B201F93CF93DF93CDB7DEB72E970FB6F8940C
S1130B30DEBF0FBECDBF0E891F89888D998D26E03B
S1130B402C831A83098397FF02C080E090E8019701
S1130B509E838D83AE01445E5F4F6A8D7B8DCE0193
S1130B60019619D04D815E8157FD0AC02F813885C9
S1130B70421753070CF49A01F801E20FF31F108295
S1130B802E960FB6F894DEBF0FBECDBFDF91CF9186
S1130B901F910F9108952F923F924F925F926F92FF
S1130BA07F928F929F92AF92BF92CF92DF92EF92F9
S1130BB0FF920F931F93CF93DF93CDB7DEB72B979D
S1130BC00FB6F894DEBF0FBECDBF6C017B018A0166
S1130BD0FC0117821682838181FFBFC1CE01019679
S1130BE03C01F6019381F70193FD859193FF819177
S1130BF07F01882309F4ADC1853239F493FD8591D1
S1130C0093FF81917F01853221F4B60190E0D6D122
S1130C10E8CF912C212C312CFFE1F315D8F08B3245
S1130C2079F038F4803279F08332A1F4232D2061F5
S1130C301DC08D3261F0803369F4232D216016C00C
S1130C40832D8260382EE32DE4603E2E2AC0F32DDE
S1130C50F8601DC037FC2DC020ED280F2A3040F06D
S1130C608E32B9F436FC75C1232D2064322E19C09E
S1130C7036FE06C08AE0989E200D1124922E11C0E3
S1130C80EAE02E9E200D1124222EF32DF0623F2E39
S1130C9008C08C3621F4832D8068382E02C0883633
S1130CA041F4F70193FD859193FF81917F018111B7
S1130CB0B3CF982F9F7D9554933028F40C5F1F4F2A
S1130CC09FE399830DC0833631F0833771F0833508
S1130CD009F055C020C0F801808189830E5F1F4F41
S1130CE088248394912C530112C02801F2E04F0E02
S1130CF0511CF801A080B18036FE03C0692D70E05C
S1130D0002C06FEF7FEFC5014ED14C018201F32D7C
S1130D10FF773F2E15C0280122E0420E511CF80136
S1130D20A080B18036FE03C0692D70E002C06FEF71
S1130D307FEFC5012DD14C01F32DF0683F2E8201C8
S1130D4033FC19C0822D90E088169906A0F4B601F0
S1130D5080E290E033D12A94F5CFF50137FC8591F8
S1130D6037FE81915F01B60190E028D121102A94C9
S1130D7021E0821A91088114910479F7E1C0843644
S1130D8011F0893639F5F80137FE07C060817181A9
S1130D90828193810C5F1F4F08C060817181072E8F
S1130DA0000C880B990B0E5F1F4FF32DFF763F2E1F
S1130DB097FF09C090958095709561957F4F8F4FEF
S1130DC09F4FF0683F2E2AE030E0A30133D1882EF4
S1130DD0861844C0853731F4232D2F7EB22E2AE0A5
S1130DE030E025C0932D997FB92E8F36C1F018F4C9
S1130DF0883579F0AEC0803719F0883721F0A9C062
S1130E00E92FE061BE2EB4FE0DC0FB2DF460BF2EB1
S1130E1009C034FE0AC0292F2660B22E06C028E07D
S1130E2030E005C020E130E002C020E132E0F8010A
S1130E30B7FE07C060817181828193810C5F1F4F6F
S1130E4006C06081718180E090E00E5F1F4FA301B6
S1130E50F1D0882E8618FB2DFF773F2E36FE0DC06D
S1130E60232D2E7FA22E891458F434FE0BC032FC9D
S1130E7009C0832D8E7EA82E05C0B82CA32C03C0D8
S1130E80B82C01C0B92CA4FE0FC0FE01E80DF11D61
S1130E908081803321F49A2D997EA92E09C0A2FE67
S1130EA006C0B394B39404C08A2D867809F0B39431
S1130EB0A3FC10C0A0FE06C0B21480F4280C922C2F
S1130EC09B180DC0B21458F4B60180E290E076D0BD
S1130ED0B394F8CFB21418F42B1802C0982C212C18
S1130EE0A4FE0FC0B60180E390E068D0A2FE16C055
S1130EF0A1FC03C088E790E002C088E590E0B60159
S1130F000CC08A2D867851F0A1FE02C08BE201C08C
S1130F1080E2A7FC8DE2B60190E050D0891430F451
S1130F20B60180E390E04AD09A94F8CF8A94F30112
S1130F30E80DF11D8081B60190E040D08110F6CF1C
S1130F40222009F44ECEB60180E290E037D02A94F4
S1130F50F7CFF6018681978102C08FEF9FEF2B9622
S1130F600FB6F894DEBF0FBECDBFDF91CF911F91B6
S1130F700F91FF90EF90DF90CF90BF90AF909F9034
S1130F808F907F906F905F904F903F902F90089537
S1130F90FC010590615070400110D8F78095909540
S1130FA08E0F9F1F0895FC01615070400190011045
S1130FB0D8F7809590958E0F9F1F08950F931F93D8
S1130FC0CF93DF93FB01238121FD03C08FEF9FEFBC
S1130FD02CC022FF16C046815781248135814217D7
S1130FE0530744F4A081B1819D012F5F3F4F3183AA
S1130FF020838C93268137812F5F3F4F378326834D
S113100014C08B01EC01FB010084F185E02D1995DE
S1131010892BE1F6D80116968D919C91179701962C
S113102017969C938E931697CE01DF91CF911F91C3
S11310300F910895FA01AA27283051F1203181F146
S1131040E8946F936E7F6E5F7F4F8F4F9F4FAF4FCC
S1131050B1E03ED0B4E03CD0670F781F891F9A1FDF
S1131060A11D680F791F8A1F911DA11D6A0F711D93
S1131070811D911DA11D20D009F468943F912AE09F
S1131080269F11243019305D3193DEF6CF01089587
S1131090462F4770405D4193B3E00FD0C9F7F6CFB8
S11310A0462F4F70405D4A3318F0495D31FD405280
S11310B0419302D0A9F7EACFB4E0A6959795879516
S11310C077956795BA95C9F70097610571050895F5
S11310D09B01AC010A2E06945795479537952795A1
S11310E0BA95C9F7620F731F841F951FA01D089539
S10710F0F894FFCF9E
S11310F4257500785F6D696E3A20002C20795F6D48
S1131104696E3A20000D0A00785F6D61783A200018
S11311142C20795F6D61783A2000785F63616C6993
S11311246272617465643A20002C20795F636C6197
S10D1134696272617465643A200078
S9030000FC
