:1000000071C000008EC000008CC000008AC00000DB
:1000100088C0000082C3000084C0000082C00000CD
:1000200080C000007EC000007CC000007AC00000DC
:1000300078C0000076C0000074C0000072C00000EC
:1000400070C000006EC000006CC000006AC00000FC
:1000500068C0000066C0000064C0000062C000000C
:1000600060C000005EC000005CC000005AC000001C
:1000700058C0000051C4000054C0000052C000002D
:1000800050C000004EC000004CC000004AC000003C
:1000900048C0000046C0000044C0000042C000004C
:1000A00040C000003EC000003CC000003AC000005C
:1000B00038C0000036C0000034C0000032C000006C
:1000C00030C000002EC000002CC000002AC000007C
:1000D00028C0000026C0000024C0000022C000008C
:1000E00020C0000011241FBECFEFD1E2DEBFCDBF84
:1000F00000E00CBF12E0A0E0B2E0E4E7FFE000E0C7
:100100000BBF02C007900D92A430B107D9F725E0CC
:10011000A4E0B2E001C01D92A53EB207E1F760D5B0
:1001200027C76ECF84B38B7F84BB84B3846084BBCA
:10013000089588B98BB18F778BB984B38D7F84BBD9
:10014000F1DF0000089592B988B98BB180688BB94E
:1001500084B38D7F84BBE6DF000008958FEF81B903
:1001600087B983B3876083BB8AB180688AB984B357
:100170008E7F84BB2FEF80E792E02150804090403B
:10018000E1F700C0000084B3816084BB2FEF8BEDEA
:1001900095E0215080409040E1F700C0000081E0F0
:1001A000C8DF8FE19EE40197F1F700C0000088E20C
:1001B000C0DF8FECBEDF80E090E0C5DF81EC90E037
:1001C000C2DF80E390E0BFDF8DEEB3DF84E690E036
:1001D000BADF83E090E0B7DF82E190E0B4DF81E84E
:1001E00090E0B1DF88EEA5DF85E890E0ACDF80E04D
:1001F00090E0A9DF88E790E0A6DF8BEC9ADF89E347
:1002000090E0A1DF8CE290E09EDF80E090E09BDF59
:1002100084E390E098DF82E090E095DF87EF89DF6C
:1002200080E290E090DF8AEE84DF80E090E08BDF78
:1002300080E090E088DF80EC7CDF83E290E083DF89
:1002400081EC77DF80E190E07EDF85EC72DF8EE38A
:1002500090E079DF88E290E076DF87EC6ADF86E87D
:1002600090E071DF86E365DF88E490E06CDF8AE38D
:1002700060DF85E590E067DF81EB5BDF80E090E0A9
:1002800062DF88E190E05FDF86EB53DF88E090E09B
:100290005ADF82E890E057DF87E290E054DF82EF98
:1002A00048DF80E090E04FDF86E243DF81E090E0CE
:1002B0004ADF80EE3EDF8FE090E045DF81E390E0B3
:1002C00042DF8BE290E03FDF8CE090E03CDF8EE0AD
:1002D00090E039DF88E090E036DF8EE490E033DFB5
:1002E00081EF90E030DF87E390E02DDF87E090E062
:1002F0002ADF80E190E027DF83E090E024DF8EE0DA
:1003000090E021DF89E090E01EDF80E090E01BDFDD
:1003100081EE0FDF80E090E016DF8EE090E013DFEB
:1003200084E190E010DF83E090E00DDF81E190E078
:100330000ADF87E090E007DF81E390E004DF81ECF3
:1003400090E001DF88E490E0FEDE88E090E0FBDEF4
:100350008FE090E0F8DE8CE090E0F5DE81E390E065
:10036000F2DE86E390E0EFDE8FE090E0ECDE81E10C
:10037000E0DE9FEF2BED85E0915020408040E1F7DB
:1003800000C0000089E2D5DE8CE2D3CE089590E073
:10039000982F8827990F990F990F20E2629FB0013B
:1003A0001124862B972B842BCECE08950F931F9369
:1003B000CF93DF938C01EB018AE2BBDE812F90E0CB
:1003C000C2DEC8019927BFDE8D2F90E0BCDECE01D2
:1003D0009927B9DEDF91CF911F910F9108950F9367
:1003E0001F93CF93DF938C01EB018BE2A2DE812F71
:1003F00090E0A9DEC8019927A6DE8D2F90E0A3DE4C
:10040000CE019927A0DEDF91CF911F910F91089522
:10041000CF92DF92EF92FF92CF93DF93C82FD0E07D
:10042000DC2FCC27DD0FDD0FDD0F20E2629FC00146
:100430001124C82BD92BC42B6FEE70E080E090E024
:10044000B5DF6FE371E080E090E0C9DF8CE271DE40
:10045000C12CD12C760107C0CE0175DE8FEFC81AF2
:10046000D80AE80AF80AC1142CE2D20621E0E20612
:10047000F10490F3DF91CF91FF90EF90DF90CF9058
:100480000895CF92DF92EF920F931F93CF93DF9354
:10049000EB016A01122FBC0189DFB601CE019FDF9B
:1004A0008CE247DE05C04E2D602F812F70DF219634
:1004B000CC16DD06C0F7DF91CF911F910F91EF9021
:1004C000DF90CF900895AF92BF92CF92DF92EF92DC
:1004D0000F931F93CF93DF935C01EB016A01122FFF
:1004E000BA01CE0163DFB501C50179DF8CE221DEFF
:1004F00005C04E2D602F812F4ADF2196CC16DD06D8
:10050000C0F7DF91CF911F910F91EF90DF90CF90C7
:10051000BF90AF900895EF920F934FE16FE38FE19B
:1005200077DFE12C00E020E04FE351E060E070E095
:1005300088E790E0A6DF20E04FEE50E060E070E05A
:1005400084E091E0C0DF0F91EF900895CF93DF93A7
:10055000EB01282F30E0A0EFB0E0B8D4472F582FA0
:10056000692F77278FEE90E0841B950BCF3321E026
:10057000D20710F0CEE3D1E08F3E910510F08EEE61
:1005800090E0BC016E5F7F4F11DFBE016E5F7F4F59
:10059000CE0125DF8CE2CDDDC0E005C040E060E0AB
:1005A0008FE1F5DECF5FC930C8F3DF91CF910895B9
:1005B0006F927F928F929F92AF92BF92CF92DF9273
:1005C000EF920F931F93CF93DF934C015B01122F98
:1005D0006C01C40ED51E81E0C81AD108460F571F02
:1005E0003A0181E0681A7108B601C401DFDEB30187
:1005F000C501F5DE8CE29DDD0DC04E2D602F812FF3
:10060000C6DE219601C0E401CC16DD06B0F78FEFFF
:10061000A81AB80A6A147B04B0F7DF91CF911F9132
:100620000F91EF90DF90CF90BF90AF909F908F9001
:100630007F906F90089527E030E023C0482F50E06E
:10064000022E02C0559547950A94E2F740FF04C078
:1006500094B3906294BB03C094B39F7D94BBE2E0DB
:10066000F1E090819860908395E09A95F1F7000011
:100670009081977F908395E09A95F1F70000215043
:1006800031093323DCF6089520E030E040E050E00B
:1006900018C0440F551FE2E0F1E09081986090830C
:1006A00085E08A95F1F7000065994160E2E0F1E0AC
:1006B0009081977F908385E08A95F1F700002F5F06
:1006C0003F4F2C3031052CF3CA0108958EB188605C
:1006D0008EB98DB188608DB9E1E0F1E080818860EC
:1006E000808383B3806283BB8DB18F7D8DB98DB1E3
:1006F0008F7E8DB98EB180618EB90895EAE6F0E003
:1007000080818260808380818E7F80838CB38061D2
:100710008CBB8DB380618DBB08951F920F920FB675
:100720000F9211248F9381E0809304028F910F9098
:100730000FBE0F901F9018950F931F93CF93DF93C9
:100740008C01EB018EB1877F8EB980E974DF9CDF6D
:10075000F8019183808380ED6EDF96DF9983888333
:100760008EB188608EB9649BFECFDF91CF911F91CF
:100770000F910895EF920F93CF93DF9300D01F92C4
:10078000CDB7DEB74FE16EE38FE142DE0F2EFFE122
:10079000EF2EF02D00E020E044E150E06CE271E04B
:1007A00080E090E005DF809104028823E1F3649902
:1007B0001EC0BE016D5F7F4FCE010196BDDF8981F6
:1007C0009A8190930C0280930B028B819C81909371
:1007D000080280930702649BFECF8FE39CE9019798
:1007E000F1F700C000004FE16EE38FE111DE1092DF
:1007F00004029FEF29EF80E0915020408040E1F714
:1008000000C000000F2EFFE1EF2EF02D00E020E0F1
:1008100044E150E060E070E08CED90E0C9DE809152
:1008200004028823E1F31092040264991EC0BE0101
:100830006D5F7F4FCE0101967FDF89819A81909312
:100840000A02809309028B819C8190930602809317
:1008500005028FE39CE90197F1F700C00000649B5B
:10086000FECF4FE16EE38FE1D3DD109204020F90D3
:100870000F900F900F90DF91CF910F91EF9008950F
:100880009093C5008093C40088E08093C10086E007
:100890008093C20008959091C00095FFFCCF809393
:1008A000C6000895CF93DF93EC0102C02196F3DFD9
:1008B00088818111FBCFDF91CF910895E1E0F1E0D4
:1008C00080818062808388E08093A0008BE18093A8
:1008D000A10087E893E19093A7008093A600089574
:1008E0002091A6003091A700DC01F0D224E630E090
:1008F00040E050E0C3D23093AD002093AC000895A7
:1009000080E480937C00EAE7F0E08FE880837894CD
:1009100080818064808308951F920F920FB60F929A
:1009200011240BB60F922F933F938F939F93EF93C6
:10093000FF938091190290911A029C012F5F3F4F03
:1009400030931A0220931902209178003091790097
:10095000880F991FFC01E55EFD4F31832083809154
:10096000190290911A02803E914038F010921A02BA
:100970001092190281E080931802EAE7F0E080818A
:1009800080648083FF91EF919F918F913F912F9190
:100990000F900BBE0F900FBE0F901F9018958F9267
:1009A0009F92AF92BF92CF92DF92EF92FF9280E040
:1009B00090E040E050E0BA010CC0FC01EE0FFF1FD8
:1009C000E55EFD4F20813181420F531F611D711D76
:1009D0000196803E21E0920780F3CB01BA0120EE20
:1009E00031E040E050E04AD249015A0140E050E095
:1009F000C12CD12C760111C0FA01EE0FFF1FE55E6C
:100A0000FD4FA081B181A819B9099D0159D2C60E27
:100A1000D71EE81EF91E4F5F5F4F403E81E058072A
:100A200058F3C701B60120EE31E040E050E026D295
:100A300069017A01C701B60161D1CAD133D1CB01B5
:100A4000FF90EF90DF90CF90BF90AF909F908F90EE
:100A5000089586E090E044DF2FEF89E698E1215089
:100A600080409040E1F700C0000080E090E038CF87
:100A7000089589E090E034DF2FE781E397E121508A
:100A800080409040E1F700C0000080E090E028CF77
:100A9000089580911802882309F497C010921802D3
:100AA0007EDF90931702809316029C01A8E8B3E1C1
:100AB0000DD22FEF33E040E050E0E0D1DA01C90180
:100AC00020931202309313024093140250931502A4
:100AD0004AE06BED75E019D28BED95E0E3DE8AE03C
:100AE000DADE2091120230911302409114025091EB
:100AF0001502AFEEB0E0FFD120ED37E040E050E06E
:100B0000BDD1822F60910202709103021FDD80919E
:100B100002029091030203979093030280930202D2
:100B2000029738F48FE391E09093030280930202DE
:100B3000F2DC8091000290910102A0E0B0E04091CF
:100B4000120250911302609114027091150248171D
:100B500059076A077B0798F0809110029091110263
:100B600001969093110280931002039741F485B18E
:100B7000806885B96EDF10920F0210920E0280918C
:100B8000000290910102A0E0B0E040911202509169
:100B90001302609114027091150284179507A6073D
:100BA000B70798F080910E0290910F0201969093F2
:100BB0000F0280930E02059741F485B18F7785B9B6
:100BC00058DF1092110210921002089540E060E088
:100BD0008FE11EDC02C0649BFECF6499FCCF0895B8
:100BE00087E690E04DDE8CDE69DEB8DA87DD78944A
:100BF0006DDDC0DD84B1806884B910920D028FE391
:100C000091E0909303028093020285DC80910D02B3
:100C1000882321F08130F1F0F9CF3BDF6499FDCFDB
:100C20002FEF80E792E0215080409040E1F700C034
:100C30000000649BFECF2FEF80E792E021508040C0
:100C40009040E1F700C0000081E080930D02BEDF1C
:100C5000DDCFBCDF6499FDCF2FEF80E792E021501C
:100C600080409040E1F700C00000649BFECF2FEF72
:100C700080E792E0215080409040E1F700C0000002
:100C800010920D0248DC8FE391E090930302809371
:100C9000020210920F0210920E0210921102109294
:100CA0001002B4CF70D088F09F5790F0B92F9927D9
:100CB000B751A0F0D1F0660F771F881F991F1AF067
:100CC000BA95C9F712C0B13081F077D0B1E008957C
:100CD00074C0672F782F8827B85F39F0B93FCCF3FD
:100CE000869577956795B395D9F73EF4909580955D
:100CF000709561957F4F8F4F9F4F0895E89409C07D
:100D000097FB3EF490958095709561957F4F8F4F3E
:100D10009F4F9923A9F0F92F96E9BB279395F69554
:100D2000879577956795B795F111F8CFFAF4BB0FD2
:100D300011F460FF1BC06F5F7F4F8F4F9F4F16C036
:100D4000882311F096E911C0772321F09EE8872FC0
:100D5000762F05C0662371F096E8862F70E060E07C
:100D60002AF09A95660F771F881FDAF7880F9695F5
:100D7000879597F9089557FD9058440F551F59F0DE
:100D80005F3F71F04795880F97FB991F61F09F3F78
:100D900079F087950895121613061406551FF2CFA1
:100DA0004695F1DF08C0161617061806991FF1CFF1
:100DB00086957105610508940895E894BB27662718
:100DC0007727CB0197F9089511F40EF44DC03EC07A
:100DD000DADFD0F39923D9F3CEF39F57550B87FF72
:100DE00046D00024A0E640EA900180585695979599
:100DF00028F4805C660F771F881F20F026173707BE
:100E0000480730F4621B730B840B202931294A2BCD
:100E1000A69517940794202531254A2758F7660F81
:100E2000771F881F20F026173707480730F4620B1A
:100E3000730B840B200D311D411DA09581F7B90165
:100E4000842F9158880F9695879508959F3F31F08C
:100E5000915020F4879577956795B795880F911DE8
:100E60009695879597F908959FEF80EC0895915096
:100E70005040660F771F881FD2F70895A1E21A2EFF
:100E8000AA1BBB1BFD010DC0AA1FBB1FEE1FFF1F2E
:100E9000A217B307E407F50720F0A21BB30BE40B7E
:100EA000F50B661F771F881F991F1A9469F76095C5
:100EB0007095809590959B01AC01BD01CF0108957F
:100EC00005D0332312F48A1B9B0B10C0A29FB001E4
:100ED000B39FC001A39F700D811D1124911DB29F6E
:100EE000700D811D1124911D0895F0DFB7FF089545
:100EF000821B930B0895EADFA59F900DB49F900D80
:100F0000A49F800D911D11240895BB274A3031F410
:100F1000992322F4BDE2909581959F4F01C0BB2794
:100F2000FB015527AA27880F991FAA1FA41710F0A5
:100F3000A41B83955051B9F7A05DAA3308F0A95DB1
:100F4000A193009779F7B111B1931192CB0100C031
:100F5000DC01FC01672F71917723E1F7329704C020
:100F60007C916D9370836291AE17BF07C8F30895AB
:040F7000F894FFCF23
:040F7400C8003F0171
:00000001FF
