S00F0000454D475F414D532E73726563FC
S113000071C0000090C000008EC000008CC00000D1
S11300108AC000000C94C01886C0000084C0000090
S113002082C0000080C000007EC000007CC00000D0
S11300307AC0000078C0000076C0000074C00000E0
S113004072C000000C94721A6EC000006CC00000F4
S11300506AC0000068C0000066C0000064C0000000
S113006062C0000060C000005EC000005CC0000010
S11300705AC000000C941B1A56C0000054C0000063
S113008052C0000050C000004EC000004CC0000030
S11300904AC0000048C0000046C0000044C0000040
S11300A042C0000040C000003EC000003CC0000050
S11300B03AC0000038C0000036C0000034C0000060
S11300C032C0000030C000002EC000002CC0000070
S11300D02AC0000028C0000026C0000024C0000080
S11300E022C0000011241FBECFEFD1E2DEBFCDBF7E
S11300F000E00CBF12E0A0E0B2E0E8E9F0E400E0C8
S11301000BBF02C007900D92AA33B107D9F72AE0BA
S1130110AAE3B2E001C01D92A637B207E1F70E943C
S1130120B71B0C944A206CCFFC01218130E0322FA4
S113013022278081A901482BCA010895FC0163810B
S1130140862F90E0A0E0B0E0BA2FA92F982F88273F
S11301502281822BBA2FA92F982F88272181822BC5
S1130160BA2FA92F982F88272081BC01CD01622B9B
S11301700895FC01608371830895FC0140835183D9
S1130180628373830895DC01FB014115510549F035
S113019080818C9341505109119631964115510536
S11301A0B9F70895FC016083415051093196411516
S11301B05105C9F70895CF93DF93DC01FB01ED01ED
S11301C021968C9190E0BF016F5F7F4F2081821B4D
S11301D091094150510921F0DE01FB01009779F3A7
S11301E0DF91CF910895FC0101C03196808188236D
S11301F029F0282F30E026173707B9F790E0089543
S1130200813848F0803A50F0803E58F08D3F60F0DD
S113021080E090E0089580E090E0089581E090E02F
S1130220089580E090E0089581E090E0089580349E
S113023058F08F3760F0803810F08D3F58F08823E5
S113024061F080E090E0089580E090E0089581E01E
S113025090E0089581E090E0089581E090E00895B1
S1130260CF92DF92EF92FF92FC019A01AB012250F0
S1130270310941095109C388D488E588F68882E0A8
S1130280C81AD108E108F1082C153D054E055F0593
S113029068F4C7A0D0A4E1A4F2A4A185B2850E9409
S11302A0651D6C0D7D1D8E1D9F1D03C060E070E0FB
S11302B0CB01FF90EF90DF90CF900895CF92DF9223
S11302C0EF92FF920F931F93CF93DF938C01EB0177
S11302D0CB014A9629DF6C01E12CF12CF8018081D5
S11302E0833061F4CE0144961FDFA0E0B0E0DC016E
S11302F099278827C82AD92AEA2AFB2AC701B601DE
S1130300DF91CF911F910F91FF90EF90DF90CF90ED
S11303100895CF92DF92EF92FF920F931F93CF93A2
S1130320DF938C01EB0169017A01B901CE014A9690
S113033020DFF8018081833031F4B70188279927C1
S1130340CE01449616DFDF91CF911F910F91FF905C
S1130350EF90DF90CF9008950F931F93CF93DF9387
S1130360EC01FB0111868E899F89A88DB98D892B9B
S11303708A2B8B2B09F446C0E0E0F0E020E030E06B
S11303801EC0AA8DBB8DA9014F5F5F4FA20FB31F83
S11303909C91903299F0953009F495EE49305105CD
S11303A039F4DB01AE0FBF1F8EE219968C933196A0
S11303B0DB01AE0FBF1F19969C9331969A012B3027
S11303C03105F8F28B01E60FF71F1186EA8DFB8DDC
S11303D08385FB0180878A8D9B8D4C96AFDEF80167
S11303E060837183828393838A8D9B8D46969CDE82
S11303F0F801978386838A8D9B8D489695DEF80154
S113040095838483DF91CF911F910F9108953F923B
S11304104F925F926F927F928F929F92AF92BF9210
S1130420CF92DF92EF92FF920F931F93CF93DF93BC
S11304303C012B01FB01C080D1805C01FCE1AF0ECB
S1130440B11C4BE050E060E270E0C501ABDEE12C92
S1130450F12C00E010E06894882483F8912CE801E2
S11304602196F601E00FF11F308080E2831508F039
S113047061C09FE2391629F0ECE53E120BC001C0C1
S11304802196F601EC0FFD1F80818F32C9F38C3564
S1130490B9F350C0FEE23F1619F0E814F90498F0DD
S11304A08BE08816910409F45CC09EE239125BC0AB
S11304B08E016894EE24E3F8F12C0F2EFBE08F2ECE
S11304C0912CF02DCCCF832D9BDE892BE9F00E5F90
S11304D01F4FCC0DDD1DC8818C2FA9DE892B09F49B
S11304E044C0C4010197E816F90608F040C0F501BC
S11304F0EE0DFF1D3082F7013196EA0DFB1D82E0FF
S1130500E80EF11CC083ABCF632D70E085E092E070
S11305106ADE892B71F58FE9830D8A3110F490EE30
S1130520390EF501EE0DFF1D3082F70131967F0182
S11305308E0195CFCC0DDD1DF201D183C083EF2850
S1130540D1F0F301848D853E11F485E0848FF0E2CF
S1130550F31510F084E001C080E0F30187A380E08C
S11305600BC086E009C086E007C086E005C086E0CF
S113057003C086E001C086E0DF91CF911F910F9107
S1130580FF90EF90DF90CF90BF90AF909F908F90AF
S11305907F906F905F904F903F900895CF93DF933B
S11305A0EC01A881B981109731F1FD019F012F5F02
S11305B03F4F9081913218F0F9019A33B9F79A3389
S11305C0E9F44C9180ED840F8A3040F412962A1796
S11305D03B0739F450E04053510905C041E050E075
S11305E002C041E050E0141615065CF039832883FC
S11305F0842F952F08C08FEF9FEF05C080E090E017
S113060002C08FEF9FEFDF91CF9108950F931F9357
S1130610CF93DF93EC018B01892BA9F0E881F98159
S1130620309799F08081882391F02A813B818581DC
S113063096812817390769F481810E94F61480FF96
S11306400AC089E009C089E007C089E005C089E0E3
S113065003C089E001C080E0811103C02881398191
S113066002C020E030E0F80131832083DF91CF9194
S11306701F910F9108958F929F92AF92BF92EF9224
S1130680FF920F931F93CF93DF93FC0123812223C7
S1130690D1F1EC017C01FFE2EF0EF11C2BA53CA58E
S11306A04DA55EA501E010E0B70189810E945115B6
S11306B081112BC01B820BA51CA52DA53EA58F8DDA
S11306C098A1A9A1BAA148015901881A990AAA0AAC
S11306D0BB0A8F89988DA98DBA8D88169906AA06AA
S11306E0BB06A8F46A816230A1F4A9019801280F1D
S11306F0391F4A1F5B1F01E010E0B70189810E9486
S1130700511580E007C080E005C081E003C080E0AF
S113071001C080E0DF91CF911F910F91FF90EF9086
S1130720BF90AF909F908F9008958F929F92AF92B9
S1130730BF92FF920F931F93CF93DF93EC014A0173
S11307405B018BA59CA5ADA5BEA584179507A6073F
S1130750B707E1F0CE018FDFF82E811118C001E058
S113076010E0A5019401BE01615D7F4F89810E9463
S11307701115882331F0FF24F39488248A94982C4B
S113078054018BA69CA6ADA6BEA601C0F12C8F2D4C
S1130790DF91CF911F910F91FF90BF90AF909F90E9
S11307A08F900895EF92FF920F931F93CF93DF934F
S11307B0EC011B828FEF9FEFDC018BA79CA7ADA7F9
S11307C0BEA7CE01B2DF811151C0CE01835D9D4F22
S11307D0ABDC7C018FA58B3E29F0893E19F0883E65
S11307E009F03CC025E5E2162AEAF20651F448E095
S11307F050E064E172E0CE018F579F4FDCDC892B1F
S1130800C1F1CE01CA9690DC8C0101501109082374
S113081019230115110511F5811522E09207F0F055
S113082081309240D8F48CAD8823C1F090E09C01D3
S11308302150310982239323892B81F48FAD815078
S1130840823060F4CE01805C9F4F6EDC892B31F0E6
S1130850CE018B5B9F4F68DC892B81F485E5E8161C
S11308608AEAF80649F402E010E008C004E010E067
S113087005C000E010E002C003E010E0C801DF9111
S1130880CF911F910F91FF90EF900895CF92DF9237
S1130890EF92FF920F931F93CF93DF93CDB7DEB701
S11308A060970FB6F894DEBF0FBECDBF6C017B011D
S11308B040E050E0BA0176DF8230910551F108F052
S11308C05AC0E114F10409F456C000E010E023C05A
S11308D0C80182959295907F9827807F98278A53A4
S11308E09E4F9601215D3F4F820F931F27DCF80135
S11308F0EE0FFF1FEE0FFF1F21E030E02C0F3D1F16
S1130900E20FF31F60837183828393830F5F1F4F12
S113091002C000E010E004301105D0F2E114F1044B
S113092021F087010150110902C000E010E0F80134
S1130930EE0FFF1FEE0FFF1F81E090E08C0F9D1F55
S1130940E80FF91F4081518162817381411551057E
S11309506105710519F0C60125DF02C083E090E04E
S1130960E114F10441F48230910528F00F5F1F4F28
S113097004301105E0F260960FB6F894DEBF0FBEA6
S1130980CDBFDF91CF911F910F91FF90EF90DF903A
S1130990CF9008952F923F924F925F926F927F92E1
S11309A08F929F92AF92BF92CF92DF92EF92FF927B
S11309B00F931F93CF93DF93CDB7DEB72E970FB668
S11309C0F894DEBF0FBECDBF7B01D42EDB011D9298
S11309D01C92E4DD8C0199230CF40BC2FC01EE0F94
S11309E0FF1FE45CFD4F208131813E872D87211557
S11309F0310509F400C2D7012D933C93BD2DBE7F70
S1130A00DB2EF9018081882361F081810E94F61434
S1130A1080FD07C0DD2009F4F0C182FDF0C180E053
S1130A2011C2AD85BE851C9211960C93802F0E9435
S1130A30FD1480FDE6C1DD2011F082FDE4C160E01B
S1130A4070E08D859E8522DF8430910509F4DDC137
S1130A50029708F0DCC1ED85FE8543A454A465A487
S1130A6076A4CF01CA9660DB8115924009F0D1C10A
S1130A708D859E858B5B9F4F57DB4C01A12CB12C40
S1130A8081149104A104B10439F48D859E858D5A95
S1130A909F4F54DB4B015C01AD85BE8557968D920B
S1130AA09D92AD92BC925A97FD01A7ADA2838FEFA0
S1130AB08A0F823008F0AFC1B0E0A50194010E9412
S1130AC0651D6D837E838F83988704AD10E0128744
S1130AD001870115110509F4A0C1C80101978023FC
S1130AE09123892B09F09BC1CF01805C9F4F1CDBB4
S1130AF01C01AD85BE8518969C938E9317978F70B5
S1130B009927892B09F08DC1CD018E5B9F4F0CDB9A
S1130B106C01E12CF12CC114D104E104F10439F489
S1130B208D859E85815B9F4F09DB6B017C018D85E3
S1130B309E85CD96F9DA009709F475C19C0140E0D1
S1130B4050E029873A874B875C878D819E81AF81EE
S1130B50B885820F931FA41FB51F9101329522956A
S1130B602F7023273F702327AC01BD01420F531F71
S1130B70611D711D49835A836B837C83C416D5061A
S1130B80E606F70608F451C1C701B60129813A8186
S1130B904B815C81621B730B840B950B980140E0C5
S1130BA050E00E94281DDA01C901211531054105D3
S1130BB0510509F43CC1263F6FEF360746076FE045
S1130BC0560718F000E010E002C003E010E0863F92
S1130BD07FEF9707A105B10510F402E010E0863F0E
S1130BE09F40A105B10510F401E010E001151105C5
S1130BF009F41FC169017A01F2E0CF0ED11CE11C96
S1130C00F11CAD85BE855396CD92DD92ED92FC929A
S1130C105697FD01438E548E658E768E89859A850E
S1130C20AB85BC85840D951DA61DB71D878F90A32C
S1130C30A1A3B2A349815A816B817C81440D551DC6
S1130C40661D771D47A350A761A772A7033011053E
S1130C5001F5CF01875A9F4F67DA892B09F0EBC062
S1130C60232809F0EAC08D859E85855A9F4F66DA50
S1130C70AD85BE8593966D937D938D939C93969746
S1130C80CC0CDD1CEE1CFF1CCC0CDD1CEE1CFF1C74
S1130C902EC0232809F4D3C02D813E814F8158856D
S1130CA0820F931FA41FB51FED85FE8583A394A314
S1130CB0A5A3B6A30230110529F4CC0CDD1CEE1C4F
S1130CC0FF1C15C0A3E0B0E0A70196010E94651DBA
S1130CD0DC01CB01B695A79597958795F1E0CF22D6
S1130CE0DD24EE24FF24C80ED91EEA1EFB1E2FEFBE
S1130CF0C20E21E0D21EE11CF11C0B2EB9E0F694C9
S1130D00E794D794C794BA95D1F7B02D8C149D0469
S1130D10AE04BF0408F495C08FEF9FEFDC01ED85AE
S1130D20FE858787908BA18BB28B83879487A58759
S1130D30B68780E884830330110509F048C0CF01E9
S1130D40815A9F4FF1D9019709F041C0B301A20123
S1130D504F5F5F4F6F4F7F4F8D859E85E6DC81111E
S1130D6036C0AD85BE8514961C921497CD01835D63
S1130D709D4FDAD985359A4A51F58D859E858F9692
S1130D80DDD9623572458146914409F58D859E858C
S1130D908D5E9D4FD3D96237724781449146B9F431
S1130DA08D859E85895E9D4FC9D9AD85BE851F966B
S1130DB06D937D938D939C935297CD01855E9D4F4A
S1130DC0BDD9ED85FE856387748785879687AD8554
S1130DD0BE850C9380913A0290913B0201969093C8
S1130DE03B0280933A0216969C938E93159780E06B
S1130DF029C08BE027C08CE025C080E023C08AE0B6
S1130E0021C083E01FC08AE01DC081E01BC08DE0CB
S1130E1019C08DE017C08DE015C08DE013C08DE0C2
S1130E2011C08DE00FC08DE00DC08DE00BC08DE0D2
S1130E3009C08DE007C08DE005C08DE003C08DE0E2
S1130E4001C08DE02E960FB6F894DEBF0FBECDBF65
S1130E50DF91CF911F910F91FF90EF90DF90CF9092
S1130E60BF90AF909F908F907F906F905F904F90C6
S1130E703F902F9008952F923F924F925F926F92DE
S1130E807F928F929F92AF92BF92CF92DF92EF9216
S1130E90FF920F931F93CF93DF9300D01F92CDB790
S1130EA0DEB7423051056105710508F4EAC0FC0162
S1130EB0C388D488E588F6884C155D056E057F05E2
S1130EC008F0E1C0280139016A017B019C838B830E
S1130ED08081823009F473C0833009F495C0813075
S1130EE009F0D3C05A01B694A794A40EB51E478D39
S1130EF050A161A172A1C501892F99278695480F38
S1130F00591F611D711DCF0110DC182F8111BEC046
S1130F102B813C81215D3F4F3A83298315013FEFAB
S1130F20231A330A81E0B822E981FA81EA0DFB1D14
S1130F304601570191E089229924AA24BB24C0FECA
S1130F4008C0208130E1439EC00111242F70822B00
S1130F5001C0842D808381E0EB81FC818383478DF4
S1130F6050A161A172A1C101892F99278695480FCB
S1130F70591F611D711DCF01D8DB182F811186C047
S1130F80F1E03F22E981FA81E20DF31D89288A28E4
S1130F908B2849F0689413F876946794579447948F
S1130FA01694D1F706C09081907F852D8F70492EBD
S1130FB0482A408281E0EB81FC81838367C0EB8116
S1130FC0FC81478D50A161A172A1BB27AF2D9E2D3D
S1130FD08D2D480F591F6A1F7B1FCF01A6DB182FC9
S1130FE0811154C02B813C81215D3F4FCC0CDD1C11
S1130FF0C6018E7F9170B201820F931FBAD881E02F
S1131000EB81FC81838342C0EB81FC81478D50A13D
S113101061A172A1D701C601689416F8B695A79587
S1131020979587951694D1F7480F591F6A1F7B1F10
S1131030CF017BDB182F811129C0FFE07F228B8138
S11310409C818F96CC0CDD1CCC0CDD1C2CEFC222B9
S113105021E0D222C80ED91EC60170D8DC01CB0112
S113106088279927AA27B07FB301A201482B592BBF
S11310706A2B7B2BC60181D881E0EB81FC818383C1
S113108005C012E003C012E001C012E0812F0F90EE
S11310900F900F900F90DF91CF911F910F91FF90C0
S11310A0EF90DF90CF90BF90AF909F908F907F9004
S11310B06F905F904F903F902F900895AF92BF92A2
S11310C0CF92DF92EF92FF920F931F93CF93DF9310
S11310D0FC01C081D181423051056105710508F4DC
S11310E0A2C08B899C89AD89BE89481759076A07B4
S11310F07B0708F09DC06A017B018881823009F476
S11311004EC0833009F46AC0813009F096C08A0168
S113111016950795040F151F4F8D58A169A17AA143
S1131120C801892F99278695480F591F611D711D84
S1131130CE01FBDA811186C05801FFEFAF1ABF0A56
S11311401170FE01E00FF11F07A510E04F8D58A1AB
S113115069A17AA1C501892F99278695480F591F3E
S1131160611D711DCE01E1DA811170C081E0B822E8
S1131170CA0DDB1D6FA570E0762F6627602B712BDF
S1131180C0FE09C0729562956F7067277F706727EC
S113119080E090E066C07F7080E090E062C04F8D98
S11311A058A169A17AA1BB27AF2D9E2D8D2D480F83
S11311B0591F6A1F7B1FCE01B8DA81114BC0CE01C3
S11311C08F96A601440F551F4E7F5170840F951FB3
S11311D00E949400BC0180E090E043C04F8D58A170
S11311E069A17AA1D701C601689416F8B695A795A6
S11311F0979587951694D1F7480F591F6A1F7B1F3F
S1131200CE0193DA81112AC0AF96A601440F551F6F
S1131210440F551FCA018C7F91708C0F9D1F0E9433
S11312209E009F701EC061E070E080E090E019C0F5
S113123061E070E080E090E014C061E070E080E084
S113124090E00FC06FEF7FEFCB010BC06FEF7FEF2C
S1131250CB0107C06FEF7FEFCB0103C06FEF7FEFD0
S1131260CB01DF91CF911F910F91FF90EF90DF9011
S1131270CF90BF90AF9008954F925F926F927F92FC
S11312808F929F92AF92BF92CF92DF92EF92FF9292
S11312900F931F93CF93DF93EC016A017B010881C5
S11312A019814115510580E26807710508F0ABC04A
S11312B0DB01CA018F719927AA27BB27892B8A2BA7
S11312C08B2B09F0A2C04E875F87688B798B8E8049
S11312D09F80A884B98481149104A104B10441F4C9
S11312E0F8018081833020F083A094A0A5A0B6A04B
S11312F081149104A104B104F1F4F801878190856B
S1131300A0E0B0E0B701A601689414F8769567955B
S1131310579547951694D1F7481759076A077B07DD
S113132008F075C083A194A1A5A1B6A18E8B9F8B53
S1131330A88FB98F3FC0F80141845284612C712C6D
S1131340032E39E0440C551C661C771C3A95D1F7E2
S1131350302D22C0B501A401CE01B0DE4B015C01E9
S11313606F3F7F4F8F4F9F4F09F453C082E0881621
S11313709104A104B10408F44EC0F801838994894E
S1131380A589B68988169906AA06BB0608F045C041
S1131390C418D508E608F708C414D504E604F7040D
S11313A0C8F6B501A401C8010E9430016E8B7F8B81
S11313B0888F998F8A8A9B8AAC8ABD8A8E899F89F5
S11313C0A88DB98D0097A105B10549F1B701A60112
S11313D0032E39E076956795579547953A95D1F759
S11313E0302D840F951FA61FB71F8E8B9F8BA88F40
S11313F0B98F015D1F4FF1E0DF22C00ED11EDB8EDD
S1131400CA8E80E00DC082E00BC082E009C082E099
S113141007C081E005C082E003C082E001C082E031
S1131420DF91CF911F910F91FF90EF90DF90CF90BC
S1131430BF90AF909F908F907F906F905F904F90F0
S113144008954F925F926F927F928F929F92AF9284
S1131450BF92CF92DF92EF92FF920F931F93CF939D
S1131460DF938C012A013B01FC01C081D18141152C
S113147051056105710599F48B849C84AD84BE8407
S113148081149104A104B10429F18B899C89AD894B
S1131490BE8988169906AA06BB0608F524C00EDE86
S11314A0623071058105910508F4F5C06F3FFFEFC7
S11314B07F078F079F0709F4FFC0CB88DC88ED887E
S11314C0FE886C157D058E059F0508F4F5C0530153
S11314D0420109C0812C912C5401839404C0812CB5
S11314E0912C540183946F85788989899A8961152F
S11314F071058105910509F4DFC084149504A604DF
S1131500B70409F040C0750164012FEFC21AD20A72
S1131510E20AF20A8B899C89AD89BE89C816D9066C
S1131520EA06FB0628F0C12CD12C76016894C1F898
S1131530B701A601C801C2DD6130710581059105BD
S113154009F4BAC06F3FEFEF7E078E079E0709F4D8
S1131550B3C0672B682B692B19F18B859C85AD85EE
S1131560BE8582309105A105B10588F04B895C895F
S11315706D897E8984179507A607B70760F0C12C8B
S1131580D12C76010DC0C12CD12C760109C0C12CFF
S1131590D12C760105C04C015D01C12CD12C760102
S11315A0C114D104E104F104C1F575016401FFEF34
S11315B0CF1ADF0AEF0AFF0A8B899C89AD89BE899D
S11315C0C816D906EA06FB0660F022E082169104EA
S11315D0A104B10408F464C0C12CD12C7601689430
S11315E0C1F8B701A601C80169DD6115710581055E
S11315F0910599F0613071058105910509F45CC08C
S11316006F3FEFEF7E078E079E0709F455C0C8149D
S1131610D904EA04FB0459F647C00FEF1FEF980101
S1131620B701A601CE0127DC81110BC0411451047E
S11316306104710431F097018601B301A201CE0166
S11316401ADC811122C0CB86DC86ED86FE864F85AE
S1131650588969897A898B899C89AD89BE89029761
S1131660A109B10984179507A607B70740F04150AF
S11316705109610971094F87588B698B7A8B8C8169
S113168081608C83C701B60117C0813089F46FEF84
S11316907FEFCB0111C061E070E080E090E00CC00E
S11316A060E070E0CB0108C060E070E0CB0104C0F2
S11316B061E070E080E090E0DF91CF911F910F91A5
S11316C0FF90EF90DF90CF90BF90AF909F908F905E
S11316D07F906F905F904F9008954F925F926F92BA
S11316E07F92AF92BF92CF92DF92EF92FF920F93CD
S11316F01F93CF93DF935C016A017B01B901A801B9
S1131700FC01C081D181F2E0CF16D104E104F104DF
S113171008F45DC08B899C89AD89BE89C816D90639
S1131720EA06FB0608F055C0012B022B032B39F007
S11317300FEF1FEF9801CE019EDB811151C0B7015D
S1131740A601C501BBDC2B013C01611571058105B6
S1131750910509F440C06130710581059105E9F1F5
S11317608FEF4816580668067806C9F100E010E0C5
S11317709801B701A601CE017EDB811131C08F85AE
S11317809889A989BA894B895C896D897E896A019E
S11317907B01E2E0CE1AD108E108F1088C159D0521
S11317A0AE05BF0550F40196A11DB11D8F87988B1E
S11317B0A98BBA8B8C8181608C837301620144167E
S11317C055066606770608F4BACF80E009C082E0C1
S11317D007C082E005C080E003C082E001C081E070
S11317E0DF91CF911F910F91FF90EF90DF90CF90F9
S11317F0BF90AF907F906F905F904F9008958F92BD
S11318009F92AF92BF92CF92DF92EF92FF920F938B
S11318101F93CF93DF937C014A015B010E943B033A
S1131820811138C0B501A401C7010E9430014B01E8
S11318305C01F70163A774A785A796A76701FFE278
S1131840CF0ED11C40E052E060E070E0C6010E947F
S1131850D200C0E0D0E001C02196F70181859285D5
S1131860C817D90770F401E010E0A50194012C0F0A
S11318703D1F411D511DB60181810E9451158823D0
S113188059F3F7012185328581E0C217D30719F492
S113189080E001C081E0DF91CF911F910F91FF9013
S11318A0EF90DF90CF90BF90AF909F908F9008956E
S11318B04F925F926F927F92AF92BF92CF92DF92DC
S11318C0EF92FF920F931F93CF93DF93FC01C0819C
S11318D0D181C684D784E088F18880E2C80ED11C07
S11318E0E11CF11CC114D10480E2E806F10420F0EB
S11318F0168A178A108E118E86899789A08DB18DCC
S11319000097A105B10509F4B0C08B015F01B701CF
S1131910A601517066277727452B462B472B09F0E4
S113192095C00196A11DB11D868B978BA08FB18F99
S11319304289538964897589411551056105710589
S1131940D1F48F819885A0E0B0E0B701A601689436
S113195014F876956795579547951694D1F74817D7
S113196059076A077B0708F471C0168A178A108E14
S1131970118E84E087C089859A8501972C01612C9A
S1131980712CD701C601072E79E0B695A7959795D6
S113199087957A95D1F7702D84219521A621B721B9
S11319A0892B8A2B8B2B09F051C0CF0187DB2B01AC
S11319B03C01623071058105910508F458C08FEF30
S11319C0481658066806780609F453C08B899C8922
S11319D0AD89BE89481659066A067B0640F1012B7B
S11319E039F4F501168A178A108E118E84E04AC0E4
S11319F0F5014289538964897589C50122DD2B016A
S1131A003C016115710581059105A9F161307105EC
S1131A108105910591F18FEF4816580668067806FE
S1131A2071F1B301A201CE01EADE81112AC0F501F0
S1131A30428A538A648A758AB301A201CE010E9444
S1131A403001F501668B778B808F918FF501C68607
S1131A50D786E08AF18AAF96F1E0DF22CC0EDD1E54
S1131A60F501D38EC28E80E00DC084E00BC082E00D
S1131A7009C081E007C087E005C082E003C081E0BF
S1131A8001C081E0DF91CF911F910F91FF90EF9002
S1131A90DF90CF90BF90AF907F906F905F904F900A
S1131AA00895EF92FF921F93CF93DF93EC01E880A8
S1131AB0F98040E050E0BA01DFDB81112AC04E8991
S1131AC05F89688D798DC7010E949503182F811154
S1131AD01CC0EA8DFB8D80818823C1F083858F73C0
S1131AE08C83838583FD0AC04BE050E0BE01645EB5
S1131AF07F4FCF010E94DB00892B51F060E070E042
S1131B00CE01D6DE8823D9F204C003C084E001C02C
S1131B10812FDF91CF911F91FF90EF900895EF9265
S1131B20FF920F931F93CF93DF931F921F92CDB712
S1131B30DEB78C017A836983DC01ED90FC9003C0ED
S1131B403196FA83E983E981FA8180818F32C1F386
S1131B508C35B1F3D80116961D921D921D921C92DC
S1131B6019978081803248F480E897968C9340E0FE
S1131B7050E0BA01C80180DB31C0BE016F5F7F4F06
S1131B80C8010E940702811129C0C8018ADFF80137
S1131B9097A1882329F0843009F592FF1CC01EC048
S1131BA092FD1CC0D801848184FF17C01E968D91BC
S1131BB09D910D90BC91A02D9170B701615D7F4FF7
S1131BC0680F791FC7010E945E01F801668377835D
S1131BD080879187D2CF85E001C085E00F900F9078
S1131BE0DF91CF911F910F91FF90EF900895CF92C5
S1131BF0DF92EF92FF920F931F93CF93DF93EC0149
S1131C006B01E880F98040E050E0BA0135DB8111D6
S1131C1020C000E010E04E895F89688D798DC7018E
S1131C200E949503811115C0EA8DFB8D9081953E2C
S1131C3011F0911106C00F5F1F4F0C151D0519F40B
S1131C4008C000E010E061E070E0CE0131DE8823DE
S1131C5011F3843009F487E0DF91CF911F910F9144
S1131C60FF90EF90DF90CF900895EF92FF921F9333
S1131C70CF93DF93EC01E880F98061E070E0B7DF97
S1131C80182F81111EC04E895F89688D798DC70117
S1131C900E949503182F811114C040E250E060E0C7
S1131CA070E08A8D9B8D0E94D200BE01645E7F4FDE
S1131CB04BE050E08A8D9B8D0E94C30081E0F701C8
S1131CC08383812FDF91CF911F91FF90EF9008952F
S1131CD0CF92DF92FF920F931F93CF93DF93EC0188
S1131CE00E943B03F82E811159C08881833009F08A
S1131CF04CC08C81813009F048C040E052E060E083
S1131D0070E06E018FE2C80ED11CC6010E94D200A1
S1131D1065E57AEACE01835D9D4F0E94B90042E5F4
S1131D2052E561E671E4C6010E94BD0042E752E754
S1131D3061E471E6CE018D5E9D4F0E94BD004F852A
S1131D40588969897A89CE01895E9D4F0E94BD00B8
S1131D504B855C856D857E85CE01855E9D4F0E9499
S1131D60BD008B8D9C8DAD8DBE8D9C01AD012F5F13
S1131D703F4F4F4F5F4F2BA73CA74DA75EA701E0F6
S1131D8010E0B60189818DD61C8240E050E060E00D
S1131D908981C7D6882311F0FF24F3948F2DDF9116
S1131DA0CF911F910F91FF90DF90CF9008951F93D3
S1131DB0CF93DF9300D000D0CDB7DEB79C838B8365
S1131DC07E836D83142F7A836983CE0101960E94EA
S1131DD0CE02992324F1FC01EE0FFF1FE45CFD4FBA
S1131DE00190F081E02D309709F01082EB81FC81A5
S1131DF0309709F01082880F991FFC01E45CFD4FB5
S1131E008B819C8191838083112359F040E0BE0132
S1131E106D5F7F4FCE0105960E94CA0403C08BE01C
S1131E2001C080E026960FB6F894DEBF0FBECDBF8A
S1131E30DF91CF911F9108952F923F924F925F921D
S1131E406F927F928F929F92AF92BF92CF92DF92C6
S1131E50EF92FF920F931F93CF93DF93CDB7DEB72B
S1131E60AC970FB6F894DEBF0FBECDBF7CA76BA7AF
S1131E70009709F488C1142F6C01842F8F73E82E06
S1131E80482FBE01675D7F4FCE018B960E94CA0426
S1131E90F82E811171C189A59AA59A8389836BA5AE
S1131EA07CA5CE0101963BDEF82E811107C088A5E2
S1131EB0882324F40F2EF6E0FF2EF02D812F8C7151
S1131EC009F478C0FF2059F0E4E0FE1204C0CE010A
S1131ED00196CBDEF82EFE2DF860EF2E0EC08D811C
S1131EE0817119F412FD06C008C00F2EF7E0FF2E11
S1131EF0F02D03C06894FF24F3F8F1106DC0E3FEE5
S1131F006BC03ED64B015C018B8D9C8DB501A40149
S1131F100E960E94BD008B8D9C8DB501A401469642
S1131F200E94BD008B8C9C8CA9A4BAA4B401C501E9
S1131F300E945E012B013C0180E2F40183876B8DDA
S1131F407C8D20E030E0A901C5010E9489018B8DC0
S1131F509C8D40E050E0BA014C960E94BD00E9A57A
S1131F60FAA581E083834114510461047104A1F151
S1131F7083A494A4A5A4B6A400E010E09801B3013E
S1131F80A201CE010196A9DBF82E811125C0B5016D
S1131F90A40189A59AA50E949503F82EE9A5FAA59E
S1131FA081E0481A510861087108438654866586A1
S1131FB0768612C0F11010C08D8184FD05C011FF1A
S1131FC00BC080FD05C008C06894FF24F2F804C06B
S1131FD00F2EF7E0FF2EF02DF11014C0E3FE03C026
S1131FE0EE2DE064EE2EE9A5FAA583A594A5A5A59A
S1131FF0B6A5F601848F958FA68FB78F8B8D9C8D98
S113200091A380A3F110B8C08B8C9C8CA9A4BAA412
S1132010B401C5010E945E01F6016683778380875F
S11320209187C4014C960E949E00F60162877387D3
S113203084879587B182A082F50185819681F60116
S113204093838283E6861786108E118E128E138EEA
S1132050108A118A128A138A1601F2E22F0E311C99
S113206040E052E060E070E0C1010E94D200E5FE71
S113207083C0F601428453846484758441145104FA
S11320806104710409F478C0408A518A628A738AAF
S1132090E9A5FAA581859285A0E0B0E04C015D0137
S11320A0072E79E0880C991CAA1CBB1C7A95D1F7E1
S11320B0702DF601468157816085718519C0C6016E
S11320C00E945E08AB01BC014230510561057105F7
S11320D018F46894FF24F1F84F3FFFEF5F076F0790
S11320E07F0711F4FF24F394481859086A087B0801
S11320F0F11005C084149504A604B70400F3F60196
S1132100448B558B668B778BF11036C0D301C2019B
S11321109170AA27BB27892B8A2B8B2B69F189A461
S11321209AA4C4010E9430016115710581059105CD
S1132130E9F0032E39E076946794579447943A95DE
S1132140D1F7302D9B01AC01240D351D461D571DC3
S1132150F601208F318F428F538F01E010E0B101DF
S1132160F40181815ED4811105C006C06894FF2406
S1132170F1F802C0FF24F394FF2039F0F601118234
S113218010828F2D03C089E001C08F2DAC960FB64D
S1132190F894DEBF0FBECDBFDF91CF911F910F9199
S11321A0FF90EF90DF90CF90BF90AF909F908F9073
S11321B07F906F905F904F903F902F9008952F9253
S11321C03F924F925F926F927F928F929F92AF92C3
S11321D0BF92CF92DF92EF92FF920F931F93CF9310
S11321E0DF93CDB7DEB72A970FB6F894DEBF0FBEE4
S11321F0CDBF7C014B016A015901D9011D921C928A
S11322008F83F886BE016F5F7F4F0E9406038111A2
S1132210ACC1F70187858111A8C1868581FFA4C15E
S113222080899189A289B389AC01BD014C0D5D1DE2
S1132230611D711D481759076A077B0708F087C19C
S11322406C01C094D09483C1F70180899189A289DB
S1132250B389AC01BD01517066277727452B462B06
S1132260472B09F02DC1E981FA8161847284F1E080
S11322706F1A7108AC01BD01032E39E0769567959C
S1132280579547953A95D1F7302D642275226114FC
S1132290710409F04FC0892B8A2B8B2B99F4D70139
S11322A016966D917D918D919C911997611571058B
S11322B08105910579F440E050E0BA018F81988559
S11322C0C0D808C0F70144895589668977898F8108
S11322D09885B7D8611571058105910509F43BC14D
S11322E0613071058105910529F482E0D7011F96BB
S11322F08C933BC16F3FBFEF7B078B079B0721F498
S113230081E0F701878731C1D70154966D937D939E
S11323108D939C93579716960D911D912D913C91F9
S11323201997012B022B032B29F4F701668377837A
S113233080879187D7011E968C911E978823E4F499
S1132340E981FA8158962D913D914D915C915B976D
S113235001E010E0B7016E5D7F4F8181A2D3882335
S113236021F081E0F701878700C1D7011E968C9187
S11323701E978F771E968C93F70144895589668939
S1132380778929813A813E832D83C9010E943001D6
S1132390611571058105910529F482E0D7011F9625
S11323A08C93E3C01B012C01260C371C411C511CCF
S11323B0F601EF2FFF27E695FC83EB83309709F4B2
S11323C04FC0AD81BE8119962D913C911A97CF01D2
S11323D0860D971D2817390728F4F901E619F7091E
S11323E0FC83EB830B811C81A2019101B401AD81BB
S11323F0BE8111968C9155D3882321F081E0F70199
S11324008787B3C0F701808D918DA28DB38D82191A
S11324109309A409B5092B813C81A90160E070E00E
S113242084179507A607B707A8F4382F330F3A8700
S1132430198669857A85680D791D40E052E0C701E7
S113244082960E94C300D7011E968C911E978F77A7
S11324501E968C936B807C80762C6624770C4FC000
S1132460F701808D918DA28DB38D281639064A0609
S11324705B06F9F040895189628973898285938565
S1132480A485B585481759076A077B0790F401E0CE
S113249010E0A2019101B7016E5D7F4FAD81BE8155
S11324A011968C91BED2882321F081E0F7018787B1
S11324B05CC0D70158962D923D924D925C925B97E9
S11324C0F70180899189A289B389917020E032E073
S11324D03901681A790AC614D70408F43601A3012D
S11324E0B40197012E5D3F4F820F931F0E94C300DA
S11324F0D7011E968C911E9780681E968C93C618E1
S1132500D708F50180819181860D971D9183808381
S1132510860C971CF70180899189A289B389860D5D
S1132520971DA11DB11D808B918BA28BB38B42850E
S113253053856485758584179507A607B70710F436
S1132540DB01CA01F70182879387A487B587C11489
S1132550D10409F079CED7011E968C911E97806420
S11325601E968C9380E001C087E02A960FB6F894FB
S1132570DEBF0FBECDBFDF91CF911F910F91FF90B2
S1132580EF90DF90CF90BF90AF909F908F907F900F
S11325906F905F904F903F902F9008958F929F92ED
S11325A0AF92BF92EF92FF920F931F93CF93DF935B
S11325B01F921F92CDB7DEB77C01BE016F5F7F4FC4
S11325C00E940603811162C0D7011E969C911E973A
S11325D096FF5CC09923ACF4E981FA8158962D9159
S11325E03D914D915C915B9701E010E0B7016E5D08
S11325F07F4F818156D2811148C0F70186858F773C
S11326008687BED24B015C01D7015C964D915D91EA
S11326106D917C915F9789819A810E9495038111C4
S113262035C0F70100A111A1D8011B968C911B970D
S113263080621B968C932681378140855185B80131
S1132640808191810E948901F701428553856485C7
S11326507585C8014C960E94BD00B501A401C8014E
S113266046960E94BD0060E070E0C80142960E9458
S1132670B90089819A8121E0DC0113962C9328DB2F
S1132680F70196859F7B968701C081E00F900F909C
S1132690DF91CF911F910F91FF90EF90BF90AF907A
S11326A09F908F9008950F931F93CF93DF931F9262
S11326B01F92CDB7DEB78C0171DF81110BC0BE0153
S11326C06F5F7F4FC8010E940603811103C0F801A8
S11326D0118210820F900F90DF91CF911F910F9173
S11326E00895EF92FF921F93CF93DF93CDB7DEB798
S11326F0AA970FB6F894DEBF0FBECDBF9AA789A7DD
S11327007B0140E0BE016F5F7F4FCE0189960E943E
S1132710CA04182F811115C069A57AA5CE010196A6
S1132720FED9182F81110DC088A588234CF0E1141F
S1132730F10439F0B701CE0101960E94AC0101C049
S113274016E0812FAA960FB6F894DEBF0FBECDBF58
S1132750DF91CF911F91FF90EF90089584B187602E
S113276084B984B1877F84B983E58CBD1DBC85B1F0
S1132770816085B908958EBD0DB407FEFDCF8EB579
S113278008958FEFF8CF08950F931F93CF93DF939E
S1132790FC0107C08F010F5F1F4F8081ECDFBE017A
S11327A0F801EB012197672BA9F7DF91CF911F91D6
S11327B00F910895EF92FF920F931F93CF93DF939E
S11327C0E82ED42F152F062FF72EC22F85B18E7F1A
S11327D085B98FEFD0DF8E2D8064CDDF8F2DCBDFD9
S11327E0802FC9DF812FC7DF8D2FC5DF8C2FC3DF7B
S11327F0C0E0C7DF88231CF4CF5FCA30D0F3DF9179
S1132800CF911F910F91FF90EF900895CF93DF9395
S1132810A5DF85B1816085B9C0E003C08FEFABDF70
S1132820CF5FCA30D8F3C0E015C025E940E050E0DE
S1132830BA0180E0BFDFD82F85B1816085B98FEF01
S11328409ADFD13049F08FE39CE90197F1F700C09A
S11328500000CF5FCA3048F3D13009F04DC027E8FB
S11328604AEA51E060E070E088E0A4DFD82FC0E0DD
S113287002C087DFCF5FC430E0F385B1816085B9E2
S11328808FEF79DFD13009F039C0C0E01CC025E6F4
S113289040E050E0BA0187E38DDF27E740E050E0F5
S11328A060E070E489E286DFD82F85B1816085B964
S11328B08FEF61DFDD2349F08FE39CE90197F1F7A6
S11328C000C00000CF5FC43610F3D11119C020E05E
S11328D040E050E0BA018AE36DDFC0E002C051DF9E
S11328E0CF5FC430E0F385B1816085B98FEF43DFFA
S11328F080E58CBD80E005C081E003C082E001C0BA
S113290083E0DF91CF910895CF93DF93EA0121E033
S1132910AB01BC0188E14EDF882329F085B18160D9
S113292085B981E01EC08FEF26DF8EEF24DF60E0E3
S113293072E0CE0129DF8FEF1EDF8FEF1CDF21DF76
S11329408F71853029F085B1816085B982E009C035
S113295018DF8823E9F385B1816085B98FEF0BDF38
S113296080E0DF91CF910895EF92FF920F931F9330
S1132970CF93DF937A0121E0AB01BC0181E11ADF3F
S1132980882351F085B1816085B981E028C0F9DEE2
S11329908E3F41F0219602C0C0E0D0E0CF3F9FEFD0
S11329A0D907A9F78E3F69F085B1816085B982E0C6
S11329B016C087010C0F1D1FE4DEF80180832196E9
S11329C002C0C0E0D0E0C115F2E0DF0790F3D9DE29
S11329D0D8DE85B1816085B98FEFCDDE80E0DF91EF
S11329E0CF911F910F91FF90EF900895811103C033
S11329F080910002089581E00895811110C006DFDE
S1132A00811106C0909100029E7F90930002089568
S1132A108091000281608093000281E0089581E04A
S1132A2008958F929F92AF92BF92EF92FF920F936D
S1132A301F93CF93DF93811122C00115110509F172
S1132A408091000280FD1FC049015A017B01C0E052
S1132A50D0E010C0AE01542F4427550F4E0D5F1D1A
S1132A60C501B4016C0F7D1F811D911D7DDF811196
S1132A700CC02196C017D10768F380E007C084E03A
S1132A8005C084E003C083E001C081E0DF91CF9101
S1132A901F910F91FF90EF90BF90AF909F908F90F8
S1132AA008958F929F92AF92BF92EF92FF920F93ED
S1132AB01F93CF93DF93811122C00115110509F1F2
S1132AC08091000280FD1FC049015A017B01C0E0D2
S1132AD0D0E010C0AE01542F4427550F4E0D5F1D9A
S1132AE0C501B4016C0F7D1F811D911D0DDF811186
S1132AF00CC02196C017D10768F380E007C084E0BA
S1132B0005C084E003C083E001C081E0DF91CF9180
S1132B101F910F91FF90EF90BF90AF909F908F9077
S1132B200895811129C06130E1F028F0623039F054
S1132B30633061F023C0FA01108280E0089580E0E0
S1132B4092E0FA019183808380E0089581E090E02F
S1132B50A0E0B0E0FA0180839183A283B38380E094
S1132B60089580E090E8A0E0B0E0FA0180839183CA
S1132B70A283B38380E0089584E0089584E00895F7
S1132B8060E070E081E290E5089584B38B7F84BBBC
S1132B9084B3846084BB089588B98BB18F778BB973
S1132BA084B38D7F84BBF1DF0000089592B988B9A6
S1132BB08BB180688BB984B38D7F84BBE6DF000062
S1132BC008958FEF81B987B983B3876083BB8AB1D6
S1132BD080688AB984B38E7F84BB2FEF80E792E04C
S1132BE0215080409040E1F700C0000084B3816030
S1132BF084BB2FEF8BED95E0215080409040E1F7AE
S1132C0000C0000081E0C8DF8FE19EE40197F1F786
S1132C1000C0000088E2C0DF8FECBEDF80E090E0FF
S1132C20C5DF81EC90E0C2DF80E390E0BFDF8DEE92
S1132C30B3DF84E690E0BADF83E090E0B7DF82E1BF
S1132C4090E0B4DF81E890E0B1DF88EEA5DF85E8AD
S1132C5090E0ACDF80E090E0A9DF88E790E0A6DFB9
S1132C608BEC9ADF89E390E0A1DF8CE290E09EDFB9
S1132C7080E090E09BDF84E390E098DF82E090E0E6
S1132C8095DF87EF89DF80E290E090DF8AEE84DFD2
S1132C9080E090E08BDF80E090E088DF80EC7CDFF8
S1132CA083E290E083DF81EC77DF80E190E07EDFF8
S1132CB085EC72DF8EE390E079DF88E290E076DFE6
S1132CC087EC6ADF86E890E071DF86E365DF88E4FD
S1132CD090E06CDF8AE360DF85E590E067DF81EBFD
S1132CE05BDF80E090E062DF88E190E05FDF86EB0D
S1132CF053DF88E090E05ADF82E890E057DF87E214
S1132D0090E054DF82EF48DF80E090E04FDF86E21E
S1132D1043DF81E090E04ADF80EE3EDF8FE090E029
S1132D2045DF81E390E042DF8BE290E03FDF8CE01F
S1132D3090E03CDF8EE090E039DF88E090E036DF21
S1132D408EE490E033DF81EF90E030DF87E390E0C2
S1132D502DDF87E090E02ADF80E190E027DF83E049
S1132D6090E024DF8EE090E021DF89E090E01EDF38
S1132D7080E090E01BDF81EE0FDF80E090E016DF63
S1132D808EE090E013DF84E190E010DF83E090E0D8
S1132D900DDF81E190E00ADF87E090E007DF81E367
S1132DA090E004DF81EC90E001DF88E490E0FEDE57
S1132DB088E090E0FBDE8FE090E0F8DE8CE090E0CD
S1132DC0F5DE81E390E0F2DE86E390E0EFDE8FE073
S1132DD090E0ECDE81E1E0DE9FEF2BED85E09150A9
S1132DE020408040E1F700C0000089E2D5DE8CE29B
S1132DF0D3CE089590E0982F8827990F990F990FB3
S1132E0020E2629FB0011124862B972B842BCECE17
S1132E1008950F931F93CF93DF938C01EB018AE204
S1132E20BBDE812F90E0C2DEC8019927BFDE8D2F63
S1132E3090E0BCDECE019927B9DEDF91CF911F91DE
S1132E400F9108950F931F93CF93DF938C01EB01A0
S1132E508BE2A2DE812F90E0A9DEC8019927A6DECD
S1132E608D2F90E0A3DECE019927A0DEDF91CF91D4
S1132E701F910F910895CF92DF92EF92FF92CF931B
S1132E80DF93C82FD0E0DC2FCC27DD0FDD0FDD0F63
S1132E9020E2629FC0011124C82BD92BC42B6FEEF2
S1132EA070E080E090E0B5DF6FE371E080E090E0F7
S1132EB0C9DF8CE271DEC12CD12C760107C0CE01B2
S1132EC075DE8FEFC81AD80AE80AF80AC1142CE292
S1132ED0D20621E0E206F10490F3DF91CF91FF9056
S1132EE0EF90DF90CF900895CF92DF92EF920F93FF
S1132EF01F93CF93DF93EB016A01122FBC0189DF8B
S1132F00B601CE019FDF8CE247DE05C04E2D602F57
S1132F10812F70DF2196CC16DD06C0F7DF91CF91AB
S1132F201F910F91EF90DF90CF900895AF92BF92D1
S1132F30CF92DF92EF920F931F93CF93DF935C01B5
S1132F40EB016A01122FBA01CE0163DFB501C5019D
S1132F5079DF8CE221DE05C04E2D602F812F4ADF00
S1132F602196CC16DD06C0F7DF91CF911F910F910A
S1132F70EF90DF90CF90BF90AF900895EF920F93B2
S1132F804FE16FE38FE177DFE12C00E020E04FE3D6
S1132F9051E060E070E088E790E0A6DF20E04FEECB
S1132FA050E060E070E084E091E0C0DF0F91EF90CA
S1132FB00895CF93DF93EB01282F30E0A0EFB0E02A
S1132FC06FD5472F582F692F77278FEE90E0841BFA
S1132FD0950BCF3321E0D20710F0CEE3D1E08F3E42
S1132FE0910510F08EEE90E0BC016E5F7F4F11DF13
S1132FF0BE016E5F7F4FCE0125DF8CE2CDDDC0E0E8
S113300005C040E060E08FE1F5DECF5FC930C8F372
S1133010DF91CF9108956F927F928F929F92AF929A
S1133020BF92CF92DF92EF920F931F93CF93DF93D0
S11330304C015B01122F6C01C40ED51E81E0C81A2D
S1133040D108460F571F3A0181E0681A7108B6018A
S1133050C401DFDEB301C501F5DE8CE29DDD0DC0E8
S11330604E2D602F812FC6DE219601C0E401CC16BF
S1133070DD06B0F78FEFA81AB80A6A147B04B0F71C
S1133080DF91CF911F910F91EF90DF90CF90BF9080
S1133090AF909F908F907F906F90089527E030E0DD
S11330A023C0482F50E0022E02C0559547950A943C
S11330B0E2F740FF04C094B3906294BB03C094B39E
S11330C09F7D94BBE2E0F1E090819860908395E06D
S11330D09A95F1F700009081977F908395E09A95F7
S11330E0F1F70000215031093323DCF6089520E084
S11330F030E040E050E018C0440F551FE2E0F1E03A
S113310090819860908385E08A95F1F70000659935
S11331104160E2E0F1E09081977F908385E08A95B9
S1133120F1F700002F5F3F4F2C3031052CF3CA011B
S113313008958EB188608EB98DB188608DB9E1E053
S1133140F1E080818860808383B3806283BB8DB12A
S11331508F7D8DB98DB18F7E8DB98EB180618EB921
S11331600895EAE6F0E080818260808380818E7F2A
S113317080838CB380618CBB8DB380618DBB0895DB
S11331801F920F920FB60F9211248F9381E08093B8
S11331903E028F910F900FBE0F901F9018950F93C2
S11331A01F93CF93DF938C01EB018EB1877F8EB990
S11331B080E974DF9CDFF8019183808380ED6EDF0A
S11331C096DF998388838EB188608EB9649BFECF25
S11331D0DF91CF911F910F910895EF920F93CF93A9
S11331E0DF9300D01F92CDB7DEB74FE16EE38FE1DE
S11331F042DE0F2EFFE1EF2EF02D00E020E044E14F
S113320050E06CE271E080E090E005DF80913E02E6
S11332108823E1F364991EC0BE016D5F7F4FCE0128
S11332200196BDDF89819A8190934602809345027D
S11332308B819C819093420280934102649BFECFD8
S11332408FE39CE90197F1F700C000004FE16EE3C2
S11332508FE111DE10923E029FEF29EF80E0915042
S113326020408040E1F700C000000F2EFFE1EF2E68
S1133270F02D00E020E044E150E060E070E08CEDEF
S113328090E0C9DE80913E028823E1F310923E0271
S113329064991EC0BE016D5F7F4FCE0101967FDF32
S11332A089819A8190934402809343028B819C810B
S11332B09093400280933F028FE39CE90197F1F7DA
S11332C000C00000649BFECF4FE16EE38FE1D3DDCD
S11332D010923E020F900F900F900F90DF91CF91BC
S11332E00F91EF9008950F931F93CF93DF93CDB772
S11332F0DEB762970FB6F894DEBF0FBECDBF9F93C3
S11333008F937F936F938DE192E09F938F938E01C0
S11333100F5F1F4F1F930F93E2D3AC0155279E01FC
S11333202F5E3F4FB80186E498E00E94DF100FB68D
S1133330F894DEBF0FBECDBF62960FB6F894DEBF21
S11333400FBECDBFDF91CF911F910F910895EF92E2
S1133350FF920F931F93CF93DF93CDB7DEB766979A
S11333600FB6F894DEBF0FBECDBFE82EF92E00E0F5
S113337010E019C01F930F9382E292E09F938F9302
S1133380FF92EF92ACD3BE016F5F7F4F8E2D9F2DC6
S1133390A8D90F900F900F900F900F900F9084303A
S11333A079F00F5F1F4F083E83E0180718F38BE096
S11333B0EEE2F2E0AE2DBF2D01900D928A95E1F779
S11333C066960FB6F894DEBF0FBECDBFDF91CF91E6
S11333D01F910F91FF90EF900895E1E0F1E080815B
S11333E0806280838AE08093A0008BE18093A100B7
S11333F087E893E19093A7008093A6000895209115
S1133400A6003091A700DC014BD324E630E040E075
S113341050E01ED33093AD002093AC00089584E4B3
S113342080937C00EAE7F0E08FE8808378948081E1
S11334308064808308951F920F920FB60F92112417
S11334400BB60F922F933F938F939F93EF93FF931A
S113345080915502909156029C012F5F3F4F30930B
S11334605602209355022091780030917900880FFC
S1133470991FFC01EA57FB4F318320838091550249
S113348090915602803E914038F01092560210926C
S1133490550281E080935402EAE7F0E08081806481
S11334A08083FF91EF919F918F913F912F910F9086
S11334B00BBE0F900FBE0F901F901895E1E8F0E03F
S11334C080818860808380818460808383E294EF3C
S11334D09093890080938800EFE6F0E08081826019
S11334E0808308951F920F920FB60F9211248F9329
S11334F081E0809348028F910F900FBE0F901F9030
S113350018958F929F92AF92BF92CF92DF92EF92D3
S1133510FF9280E090E040E050E0BA010CC0FC0172
S1133520EE0FFF1FEA57FB4F20813181420F531FDB
S1133530611D711D0196803E21E0920780F3CB014D
S1133540BA0120EE31E040E050E082D249015A0154
S113355040E050E0C12CD12C760111C0FA01EE0FED
S1133560FF1FEA57FB4FA081B181A819B9099D013A
S113357091D2C60ED71EE81EF91E4F5F5F4F403E24
S113358081E0580758F3C701B60120EE31E040E06E
S113359050E05ED269017A01C701B60199D102D225
S11335A06BD1CB01FF90EF90DF90CF90BF90AF90A5
S11335B09F908F90089586E090E021DF2FEF89E6B9
S11335C098E1215080409040E1F700C0000080E085
S11335D090E015CF089589E090E011DF2FE781E3B3
S11335E097E1215080409040E1F700C0000080E066
S11335F090E005CF089580915402882309F47EC099
S1133600109254027EDF90935302809352029C01E5
S1133610A0E2BEE445D22FEF33E040E050E018D200
S113362020934E0230934F02409350025093510224
S1133630AFEEB0E04AD220ED37E040E050E008D2EF
S1133640822F6091030270910402B3DC8091030223
S113365090910402039790930402809303020297CB
S113366038F48FE391E0909304028093030286DCA4
S11336708091010290910202A0E0B0E040914E02DC
S113368050914F02609150027091510248175907AE
S11336906A077B0780F080914C0290914D0201965D
S11336A090934D0280934C02039729F484DF109287
S11336B04B0210924A028091010290910202A0E012
S11336C0B0E040914E0250914F02609150027091CF
S11336D0510284179507A607B70780F080914A0224
S11336E090914B02019690934B0280934A02059766
S11336F029F471DF10924D0210924C0208958091CA
S113370048028823A1F01092480281E09091470278
S1133710911180E080934702882329F04FE16FE301
S11337208FE1A9DB04C040E060E080E0A4DB80918D
S113373054028823D9F010925402E3DE909353028A
S1133740809352029C01A0E2BEE4AAD12FEF33E0A1
S113375040E050E07DD120934E0230934F024093DD
S1133760500250935102CA01B901BDCD0895CF93BF
S1133770DF93CDB7DEB760970FB6F894DEBF0FBE08
S1133780CDBF4DDE2ADE1DDAECDCD3DC26DD7894F9
S113379095DE109249028FE391E0909304028093A6
S11337A00302ECDB80914902882321F0813001F18E
S11337B0F9CF21DF6499FDCF2FEF80E792E021500C
S11337C080409040E1F700C00000649BFECF2FEFE3
S11337D080E792E0215080409040E1F700C0000073
S11337E081E08093490240E060E080E044DBDACF8E
S11337F041E061E272E087E592E00E94D70E811118
S1133800FFCFCE010196A3DD4AE0BE016F5F7F4F7B
S113381086E498E00E941C0F882311F0FFCF6FDF2D
S11338206499FDCF86E498E00E9453132FEF80E75C
S113383092E0215080409040E1F700C00000649B7A
S1133840FECF2FEF80E792E0215080409040E1F7D7
S113385000C000001092490291DB8FE391E0909345
S113386004028093030210924D0210924C021092B3
S11338704B0210924A0296CF70D088F09F5790F076
S1133880B92F9927B751A0F0D1F0660F771F881F81
S1133890991F1AF0BA95C9F712C0B13081F077D0E8
S11338A0B1E0089574C0672F782F8827B85F39F086
S11338B0B93FCCF3869577956795B395D9F73EF4E0
S11338C090958095709561957F4F8F4F9F4F089588
S11338D0E89409C097FB3EF49095809570956195A6
S11338E07F4F8F4F9F4F9923A9F0F92F96E9BB275C
S11338F09395F695879577956795B795F111F8CFD8
S1133900FAF4BB0F11F460FF1BC06F5F7F4F8F4F42
S11339109F4F16C0882311F096E911C0772321F038
S11339209EE8872F762F05C0662371F096E8862FD0
S113393070E060E02AF09A95660F771F881FDAF727
S1133940880F9695879597F9089557FD9058440FD9
S1133950551F59F05F3F71F04795880F97FB991FEA
S113396061F09F3F79F087950895121613061406A7
S1133970551FF2CF4695F1DF08C016161706180634
S1133980991FF1CF86957105610508940895E8940F
S1133990BB2766277727CB0197F9089511F40EF416
S11339A04DC03EC0DADFD0F39923D9F3CEF39F574D
S11339B0550B87FF46D00024A0E640EA90018058CA
S11339C05695979528F4805C660F771F881F20F022
S11339D026173707480730F4621B730B840B202922
S11339E031294A2BA69517940794202531254A2777
S11339F058F7660F771F881F20F0261737074807E8
S1133A0030F4620B730B840B200D311D411DA09506
S1133A1081F7B901842F9158880F96958795089559
S1133A209F3F31F0915020F4879577956795B7952E
S1133A30880F911D9695879597F908959FEF80ECCF
S1133A40089591505040660F771F881FD2F708954C
S1133A50A1E21A2EAA1BBB1BFD010DC0AA1FBB1F8E
S1133A60EE1FFF1FA217B307E407F50720F0A21B00
S1133A70B30BE40BF50B661F771F881F991F1A946D
S1133A8069F760957095809590959B01AC01BD0197
S1133A90CF01089505D0332312F48A1B9B0B10C069
S1133AA0A29FB001B39FC001A39F700D811D11247B
S1133AB0911DB29F700D811D1124911D0895F0DF99
S1133AC0B7FF0895821B930B0895EADFA59F900D1D
S1133AD0B49F900DA49F800D911D112408950F9300
S1133AE01F93CF93DF93CDB7DEB72E970FB6F8941D
S1133AF0DEBF0FBECDBF0E891F8986E08C831A837B
S1133B0009838FEF9FE79E838D83AE01465E5F4FEF
S1133B10688D798DCE01019610D0EF81F885E00F84
S1133B20F11F10822E960FB6F894DEBF0FBECDBFE4
S1133B30DF91CF911F910F9108952F923F924F9251
S1133B405F926F927F928F929F92AF92BF92CF9229
S1133B50DF92EF92FF920F931F93CF93DF93CDB732
S1133B60DEB72B970FB6F894DEBF0FBECDBF6C0146
S1133B707B018A01FC0117821682838181FFBFC108
S1133B80CE0101963C01F6019381F70193FD8591E5
S1133B9093FF81917F01882309F4ADC1853239F403
S1133BA093FD859193FF81917F01853221F4B601C4
S1133BB090E0D6D1E8CF912C212C312CFFE1F315E4
S1133BC0D8F08B3279F038F4803279F08332A1F472
S1133BD0232D20611DC08D3261F0803369F4232DC3
S1133BE0216016C0832D8260382EE32DE4603E2EC2
S1133BF02AC0F32DF8601DC037FC2DC020ED280F1E
S1133C002A3040F08E32B9F436FC75C1232D20647D
S1133C10322E19C036FE06C08AE0989E200D11246B
S1133C20922E11C0EAE02E9E200D1124222EF32D97
S1133C30F0623F2E08C08C3621F4832D8068382E24
S1133C4002C0883641F4F70193FD859193FF819179
S1133C507F018111B3CF982F9F7D9554933028F421
S1133C600C5F1F4F9FE399830DC0833631F0833778
S1133C7071F0833509F055C020C0F8018081898333
S1133C800E5F1F4F88248394912C530112C0280186
S1133C90F2E04F0E511CF801A080B18036FE03C043
S1133CA0692D70E002C06FEF7FEFC5014ED14C016A
S1133CB08201F32DFF773F2E15C0280122E0420E2A
S1133CC0511CF801A080B18036FE03C0692D70E05C
S1133CD002C06FEF7FEFC5012DD14C01F32DF068C9
S1133CE03F2E820133FC19C0822D90E0881699067C
S1133CF0A0F4B60180E290E033D12A94F5CFF50127
S1133D0037FC859137FE81915F01B60190E028D19F
S1133D1021102A9421E0821A91088114910479F7E0
S1133D20E1C0843611F0893639F5F80137FE07C051
S1133D3060817181828193810C5F1F4F08C0608113
S1133D407181072E000C880B990B0E5F1F4FF32D0A
S1133D50FF763F2E97FF09C09095809570956195E9
S1133D607F4F8F4F9F4FF0683F2E2AE030E0A30132
S1133D7033D1882E861844C0853731F4232D2F7E05
S1133D80B22E2AE030E025C0932D997FB92E8F36CC
S1133D90C1F018F4883579F0AEC0803719F088374F
S1133DA021F0A9C0E92FE061BE2EB4FE0DC0FB2DA9
S1133DB0F460BF2E09C034FE0AC0292F2660B22E3B
S1133DC006C028E030E005C020E130E002C020E178
S1133DD032E0F801B7FE07C060817181828193816E
S1133DE00C5F1F4F06C06081718180E090E00E5F20
S1133DF01F4FA301F1D0882E8618FB2DFF773F2E8D
S1133E0036FE0DC0232D2E7FA22E891458F434FEC5
S1133E100BC032FC09C0832D8E7EA82E05C0B82CA1
S1133E20A32C03C0B82C01C0B92CA4FE0FC0FE0102
S1133E30E80DF11D8081803321F49A2D997EA92EFD
S1133E4009C0A2FE06C0B394B39404C08A2D867838
S1133E5009F0B394A3FC10C0A0FE06C0B21480F411
S1133E60280C922C9B180DC0B21458F4B60180E2B1
S1133E7090E076D0B394F8CFB21418F42B1802C0A3
S1133E80982C212CA4FE0FC0B60180E390E068D0EA
S1133E90A2FE16C0A1FC03C088E790E002C088E53A
S1133EA090E0B6010CC08A2D867851F0A1FE02C0C4
S1133EB08BE201C080E2A7FC8DE2B60190E050D015
S1133EC0891430F4B60180E390E04AD09A94F8CF94
S1133ED08A94F301E80DF11D8081B60190E040D091
S1133EE08110F6CF222009F44ECEB60180E290E094
S1133EF037D02A94F7CFF6018681978102C08FEFDD
S1133F009FEF2B960FB6F894DEBF0FBECDBFDF91A7
S1133F10CF911F910F91FF90EF90DF90CF90BF90C2
S1133F20AF909F908F907F906F905F904F903F9055
S1133F302F900895FC010590615070400110D8F74E
S1133F40809590958E0F9F1F0895FC0161507040DD
S1133F5001900110D8F7809590958E0F9F1F0895BA
S1133F600F931F93CF93DF93FB01238121FD03C0A4
S1133F708FEF9FEF2CC022FF16C04681578124810A
S1133F8035814217530744F4A081B1819D012F5F0D
S1133F903F4F318320838C93268137812F5F3F4F9E
S1133FA03783268314C08B01EC01FB010084F18567
S1133FB0E02D1995892BE1F6D80116968D919C91E7
S1133FC01797019617969C938E931697CE01DF91BF
S1133FD0CF911F910F910895FA01AA27283051F12A
S1133FE0203181F1E8946F936E7F6E5F7F4F8F4F26
S1133FF09F4FAF4FB1E03ED0B4E03CD0670F781F85
S1134000891F9A1FA11D680F791F8A1F911DA11D69
S11340106A0F711D811D911DA11D20D009F46894A2
S11340203F912AE0269F11243019305D3193DEF64A
S1134030CF010895462F4770405D4193B3E00FD000
S1134040C9F7F6CF462F4F70405D4A3318F0495DEB
S113405031FD4052419302D0A9F7EACFB4E0A695CE
S11340609795879577956795BA95C9F700976105F0
S1134070710508959B01AC010A2E06945795479546
S113408037952795BA95C9F7620F731F841F951F3B
S10B4090A01D0895F894FFCF70
S11340980164003F01222A2B2C3A3B3C3D3E3F5B06
S11340A85D7C7F00464154333220202000256C7506
S11340B80A00454D47253033752E54585400454D54
S10D40C8473939392E5458540000CA
S9030000FC
