S00F0000454D475F414D532E73726563FC
S113000071C0000081C000007FC000007DC00000FE
S11300107BC0000079C0000077C0000075C00000FC
S113002073C0000071C000006FC000006DC000000C
S11300306BC0000069C0000067C0000065C000001C
S113004063C0000061C000005FC000005DC000002C
S11300505BC0000059C0000057C0000055C000003C
S113006053C0000051C000004FC000004DC000004C
S11300704BC00000C8C2000047C0000045C00000DB
S113008043C0000041C000003FC000003DC000006C
S11300903BC0000039C0000037C0000035C000007C
S11300A033C0000031C000002FC000002DC000008C
S11300B02BC0000029C0000027C0000025C000009C
S11300C023C0000021C000001FC000001DC00000AC
S11300D01BC0000019C0000017C0000015C00000BC
S11300E013C0000011241FBECFEFD1E2DEBFCDBF8D
S11300F000E00CBF25E0A0E0B2E001C01D92A33CEB
S1130100B207E1F71DD31AC57BCF84B38B7F84BBC1
S113011084B3846084BB089588B98BB18F778BB91D
S113012084B38D7F84BBF1DF0000089592B988B950
S11301308BB180688BB984B38D7F84BBE6DF00000C
S113014008958FEF81B987B983B3876083BB8AB180
S113015080688AB984B38E7F84BB2FEF80E792E0F6
S1130160215080409040E1F700C0000084B38160DA
S113017084BB2FEF8BED95E0215080409040E1F758
S113018000C0000081E0C8DF8FE19EE40197F1F731
S113019000C0000088E2C0DF8FECBEDF80E090E0AA
S11301A0C5DF81EC90E0C2DF80E390E0BFDF8DEE3D
S11301B0B3DF84E690E0BADF83E090E0B7DF82E16A
S11301C090E0B4DF81E890E0B1DF88EEA5DF85E858
S11301D090E0ACDF80E090E0A9DF88E790E0A6DF64
S11301E08BEC9ADF89E390E0A1DF8CE290E09EDF64
S11301F080E090E09BDF84E390E098DF82E090E091
S113020095DF87EF89DF80E290E090DF8AEE84DF7C
S113021080E090E08BDF80E090E088DF80EC7CDFA2
S113022083E290E083DF81EC77DF80E190E07EDFA2
S113023085EC72DF8EE390E079DF88E290E076DF90
S113024087EC6ADF86E890E071DF86E365DF88E4A7
S113025090E06CDF8AE360DF85E590E067DF81EBA7
S11302605BDF80E090E062DF88E190E05FDF86EBB7
S113027053DF88E090E05ADF82E890E057DF87E2BE
S113028090E054DF82EF48DF80E090E04FDF86E2C9
S113029043DF81E090E04ADF80EE3EDF8FE090E0D4
S11302A045DF81E390E042DF8BE290E03FDF8CE0CA
S11302B090E03CDF8EE090E039DF88E090E036DFCC
S11302C08EE490E033DF81EF90E030DF87E390E06D
S11302D02DDF87E090E02ADF80E190E027DF83E0F4
S11302E090E024DF8EE090E021DF89E090E01EDFE3
S11302F080E090E01BDF81EE0FDF80E090E016DF0E
S11303008EE090E013DF84E190E010DF83E090E082
S11303100DDF81E190E00ADF87E090E007DF81E311
S113032090E004DF81EC90E001DF88E490E0FEDE01
S113033088E090E0FBDE8FE090E0F8DE8CE090E077
S1130340F5DE81E390E0F2DE86E390E0EFDE8FE01D
S113035090E0ECDE81E1E0DE9FEF2BED85E0915053
S113036020408040E1F700C0000089E2D5DE8CE245
S1130370D3CE089590E0982F8827990F990F990F5D
S113038020E2629FB0011124862B972B842BCECEC2
S113039008950F931F93CF93DF938C01EB018AE2AF
S11303A0BBDE812F90E0C2DEC8019927BFDE8D2F0E
S11303B090E0BCDECE019927B9DEDF91CF911F9189
S11303C00F9108950F931F93CF93DF938C01EB014B
S11303D08BE2A2DE812F90E0A9DEC8019927A6DE78
S11303E08D2F90E0A3DECE019927A0DEDF91CF917F
S11303F01F910F910895CF92DF92EF92FF92CF93C6
S1130400DF93C82FD0E0DC2FCC27DD0FDD0FDD0F0D
S113041020E2629FC0011124C82BD92BC42B6FEE9C
S113042070E080E090E0B5DF6FE371E080E090E0A1
S1130430C9DF8CE271DEC12CD12C760107C0CE015C
S113044075DE8FEFC81AD80AE80AF80AC1142CE23C
S1130450D20621E0E206F10490F3DF91CF91FF9000
S1130460EF90DF90CF900895CF92DF92EF920F93A9
S11304701F93CF93DF93EB016A01122FBC0189DF35
S1130480B601CE019FDF8CE247DE05C04E2D602F02
S1130490812F70DF2196CC16DD06C0F7DF91CF9156
S11304A01F910F91EF90DF90CF900895AF92BF927C
S11304B0CF92DF92EF920F931F93CF93DF935C0160
S11304C0EB016A01122FBA01CE0163DFB501C50148
S11304D079DF8CE221DE05C04E2D602F812F4ADFAB
S11304E02196CC16DD06C0F7DF91CF911F910F91B5
S11304F0EF90DF90CF90BF90AF900895EF920F935D
S11305004FE16FE38FE177DFE12C00E020E04FE380
S113051051E060E070E088E790E0A6DF20E04FEE75
S113052050E060E070E084E091E0C0DF0F91EF9074
S11305300895CF93DF93EB01282F30E0A0EFB0E0D4
S1130540ABD2472F582F692F77278FEE90E0841B6B
S1130550950BBC011EDFBE01CE0134DF8CE2DCDD75
S113056040E060E08FE106DFDF91CF910895909342
S1130570C5008093C40088E08093C10086E0809326
S1130580C20008959091C00095FFFCCF8093C600EF
S11305900895CF93DF93EC0102C02196F3DF8881A5
S11305A08111FBCFDF91CF910895E1E0F1E08081EB
S11305B08062808388E08093A0008BE18093A10017
S11305C087E893E19093A7008093A6000895209173
S11305D0A6003091A700DC015FD224E630E040E0C1
S11305E050E032D23093AD002093AC00089580E403
S11305F080937C00EAE7F0E08FE880837894808140
S11306008064808308951F920F920FB60F92112475
S11306100BB60F922F933F938F939F93EF93FF9378
S113062080910102909102029C012F5F3F4F309311
S11306300202209301022091780030917900880F02
S1130640991FFC01ED5FFD4F3183208380910102EE
S113065090910202803E914038F010920202109272
S1130660010281E080930002EAE7F0E08081806487
S11306708083FF91EF919F918F913F912F910F90E4
S11306800BBE0F900FBE0F901F9018958F929F92E4
S1130690AF92BF92CF92DF92EF92FF9280E090E010
S11306A040E050E0BA010CC0FC01EE0FFF1FED5F0B
S11306B0FD4F20813181420F531F611D711D019631
S11306C0803E21E0920780F3CB01BA0120EE31E0B5
S11306D040E050E0B9D149015A0140E050E0C12C5A
S11306E0D12C760111C0FA01EE0FFF1FED5FFD4F13
S11306F0A081B181A819B9099D01C8D1C60ED71E20
S1130700E81EF91E4F5F5F4F403E81E0580758F3E3
S1130710C701B60120EE31E040E050E095D1690117
S11307207A01C701B601D0D039D1A2D0CB01FF9054
S1130730EF90DF90CF90BF90AF909F908F900895EF
S1130740CF93DF93CDB7DEB72A970FB6F894DEBF09
S11307500FBECDBF87E690E00ADF49DF26DFF1DC7C
S1130760CDDE84B1806884B9C12CD12CE12CF12C6C
S11307700FE311E0809100028823E1F3109200025C
S113078085DF9C01A8E8B3E187D12FEF33E040E097
S113079050E05AD1622E732E442E552E822E932E63
S11307A0A42EB52E4AE0BE016F5F7F4F862D972D94
S11307B092D1CE010196EDDE8AE0E4DEAFEEB0E048
S11307C0262D372D442D552D7CD120ED37E040E0EA
S11307D050E03AD1822FB801ACDE0150110919F46E
S11307E08DDE0FE311E028EC82169104A104B1041C
S11307F0D8F08FEFE81AF80A93E0E916F104A1F4AF
S113080085B1806885B986E090E0E1DE2FEF89E666
S113081098E1215080409040E1F700C0000080E062
S113082090E0D5DEC12CD12C29EC82169104A104D0
S1130830B10408F09FCF8FEFC81AD80A95E0C91603
S1130840D10409F097CF85B18F7785B989E090E01D
S1130850BEDE2FE781E397E1215080409040E1F72D
S113086000C0000080E090E0B2DEE12CF12C82CFE9
S113087070D088F09F5790F0B92F9927B751A0F006
S1130880D1F0660F771F881F991F1AF0BA95C9F720
S113089012C0B13081F077D0B1E0089574C0672FF1
S11308A0782F8827B85F39F0B93FCCF386957795D0
S11308B06795B395D9F73EF49095809570956195B9
S11308C07F4F8F4F9F4F0895E89409C097FB3EF4E4
S11308D090958095709561957F4F8F4F9F4F992389
S11308E0A9F0F92F96E9BB279395F6958795779507
S11308F06795B795F111F8CFFAF4BB0F11F460FFC7
S11309001BC06F5F7F4F8F4F9F4F16C0882311F01E
S113091096E911C0772321F09EE8872F762F05C032
S1130920662371F096E8862F70E060E02AF09A95CD
S1130930660F771F881FDAF7880F9695879597F9C2
S1130940089557FD9058440F551F59F05F3F71F0BB
S11309504795880F97FB991F61F09F3F79F0879522
S11309600895121613061406551FF2CF4695F1DFAB
S113097008C0161617061806991FF1CF869571053B
S1130980610508940895E894BB2766277727CB016F
S113099097F9089511F40EF44DC03EC0DADFD0F398
S11309A09923D9F3CEF39F57550B87FF46D00024E4
S11309B0A0E640EA900180585695979528F4805C0B
S11309C0660F771F881F20F026173707480730F473
S11309D0621B730B840B202931294A2BA69517948B
S11309E00794202531254A2758F7660F771F881F5B
S11309F020F026173707480730F4620B730B840B7B
S1130A00200D311D411DA09581F7B901842F915806
S1130A10880F9695879508959F3F31F0915020F463
S1130A20879577956795B795880F911D96958795C6
S1130A3097F908959FEF80EC089591505040660F08
S1130A40771F881FD2F70895A1E21A2EAA1BBB1B99
S1130A50FD010DC0AA1FBB1FEE1FFF1FA217B30786
S1130A60E407F50720F0A21BB30BE40BF50B661F9C
S1130A70771F881F991F1A9469F760957095809560
S1130A8090959B01AC01BD01CF01089505D033239E
S1130A9012F48A1B9B0B10C0A29FB001B39FC0012C
S1130AA0A39F700D811D1124911DB29F700D811D96
S1130AB01124911D0895F0DFB7FF0895821B930B55
S1130AC00895EADFA59F900DB49F900DA49F800D1B
S1130AD0911D11240895BB274A3031F4992322F43F
S1130AE0BDE2909581959F4F01C0BB27FB0155271F
S1130AF0AA27880F991FAA1FA41710F0A41B839577
S1130B005051B9F7A05DAA3308F0A95DA1930097ED
S1130B1079F7B111B1931192CB0100C0DC01FC0152
S1130B20672F71917723E1F7329704C07C916D931D
S1130B3070836291AE17BF07C8F30895F894FFCF8E
S9030000FC
