:1000000071C0000086C0000084C0000082C00000F3
:1000100080C000007EC000007CC000007AC00000EC
:1000200078C0000076C0000074C0000072C00000FC
:1000300070C000006EC000006CC000006AC000000C
:1000400068C0000066C0000064C0000062C000001C
:1000500060C000005EC000005CC000005AC000002C
:1000600058C0000056C0000054C0000052C000003C
:1000700050C000004EC000004CC000004AC000004C
:1000800048C0000046C0000044C0000042C000005C
:1000900040C000003EC000003CC000003AC000006C
:1000A00038C0000036C0000034C0000032C000007C
:1000B00030C000002EC000002CC000002AC000008C
:1000C00028C0000026C0000024C0000022C000009C
:1000D00020C000001EC000001CC000001AC00000AC
:1000E00018C0000011241FBECFEFD1E2DEBFCDBF8C
:1000F00000E00CBF12E0A0E0B2E0EAECF2E000E0C9
:100100000BBF02C007900D92AA30B107D9F73CD0BF
:10011000DAC076CF80E480937C0087E880937A0011
:100120000895ECE7F0E09081907F8F70892B8083B9
:10013000EAE7F0E080818064808380917A0086FD28
:10014000FCCF809178009091790008959093C5003C
:100150008093C40088E08093C10086E08093C20051
:1001600008959091C00095FFFCCF8093C60008953C
:10017000CF93DF93EC0102C02196F3DF88818111D8
:10018000FBCFDF91CF910895CF93DF93CDB7DEB74B
:1001900064970FB6F894DEBF0FBECDBF87E690E040
:1001A000D5DFB8DF80E0BDDF9C01A8E8B3E149D02E
:1001B0002FEF33E040E050E022D0BA01A901445CC7
:1001C000594061097109CA01992324F488279927A4
:1001D000841B950B4AE0BE016F5F7F4F41D080E0EA
:1001E00092E0C6DFCE010196C3DF2FEF80E792E0F9
:1001F000215080409040E1F700C00000D3CFA1E241
:100200001A2EAA1BBB1BFD010DC0AA1FBB1FEE1F90
:10021000FF1FA217B307E407F50720F0A21BB30BDB
:10022000E40BF50B661F771F881F991F1A9469F757
:1002300060957095809590959B01AC01BD01CF01B3
:100240000895A29FB001B39FC001A39F700D811DAF
:100250001124911DB29F700D811D1124911D0895CF
:10026000BB274A3031F4992322F4BDE29095819561
:100270009F4F01C0BB27FB015527AA27880F991F55
:10028000AA1FA41710F0A41B83955051B9F7A05DC5
:10029000AA3308F0A95DA193009779F7B111B19342
:1002A0001192CB0100C0DC01FC01672F7191772313
:1002B000E1F7329704C07C916D9370836291AE1721
:0A02C000BF07C8F30895F894FFCFBC
:0A02CA00566F6C746167653A2000FE
:00000001FF
