:1000000071C0000081C000007FC000007DC0000002
:100010007BC0000079C0000077C0000075C0000000
:1000200073C0000071C000006FC000006DC0000010
:100030006BC0000069C0000067C0000065C0000020
:1000400063C0000061C000005FC000005DC0000030
:100050005BC0000059C0000057C0000055C0000040
:1000600053C0000051C000004FC000004DC0000050
:100070004BC0000061C0000047C0000045C0000048
:1000800043C0000041C000003FC000003DC0000070
:100090003BC0000039C0000037C0000035C0000080
:1000A00033C0000031C000002FC000002DC0000090
:1000B0002BC0000029C0000027C0000025C00000A0
:1000C00023C0000021C000001FC000001DC00000B0
:1000D0001BC0000019C0000017C0000015C00000C0
:1000E00013C0000011241FBECFEFD1E2DEBFCDBF91
:1000F00000E00CBF23E0A0E0B2E001C01D92A33EEF
:10010000B207E1F7B4D0FBC17BCF9093C5008093D9
:10011000C40088E08093C10086E08093C200089507
:1001200080E480937C00EAE7F0E08FE880837894B5
:1001300080818064808308951F920F920FB60F9282
:1001400011240BB60F922F933F938F939F93EF93AE
:10015000FF9380910102909102029C012F5F3F4F1B
:1001600030930202209301022091780030917900AF
:10017000880F991FFC01ED5FFD4F31832083809133
:10018000010290910202803F910538F01092020224
:100190001092010281E080930002EAE7F0E08081A2
:1001A00080648083FF91EF919F918F913F912F9178
:1001B0000F900BBE0F900FBE0F901F9018958F924F
:1001C0009F92AF92BF92CF92DF92EF92FF9280E028
:1001D00090E040E050E0BA010CC0FC01EE0FFF1FC0
:1001E000ED5FFD4F20813181420F531F611D711D55
:1001F0000196803F910588F3CB01BA0120EF30E0F2
:1002000040E050E03FD149015A0140E050E0C12CAC
:10021000D12C760111C0FA01EE0FFF1FED5FFD4FEB
:10022000A081B181A819B9099D014ED1C60ED71E72
:10023000E81EF91E4F5F5F4F403F510560F3C70155
:10024000B60120EF30E040E050E01CD169017A01B6
:10025000C701B60157D0C0D029D0CB01FF90EF9095
:10026000DF90CF90BF90AF909F908F90089587E6DA
:1002700090E04BDF55DF84B1806884B98091000243
:100280008823E1F3109200029ADF9C01A8E8B3E111
:1002900021D168317C498F40910520F085B180687B
:1002A00085B9ECCF85B18F7785B9E8CF70D088F06C
:1002B0009F5790F0B92F9927B751A0F0D1F0660F52
:1002C000771F881F991F1AF0BA95C9F712C0B1306D
:1002D00081F077D0B1E0089574C0672F782F882718
:1002E000B85F39F0B93FCCF3869577956795B395AC
:1002F000D9F73EF490958095709561957F4F8F4F1B
:100300009F4F0895E89409C097FB3EF4909580951F
:10031000709561957F4F8F4F9F4F9923A9F0F92FCB
:1003200096E9BB279395F695879577956795B79549
:10033000F111F8CFFAF4BB0F11F460FF1BC06F5F2F
:100340007F4F8F4F9F4F16C0882311F096E911C041
:10035000772321F09EE8872F762F05C0662371F062
:1003600096E8862F70E060E02AF09A95660F771F76
:10037000881FDAF7880F9695879597F9089557FDA6
:100380009058440F551F59F05F3F71F04795880F03
:1003900097FB991F61F09F3F79F08795089512169A
:1003A00013061406551FF2CF4695F1DF08C0161646
:1003B00017061806991FF1CF8695710561050894F7
:1003C0000895E894BB2766277727CB0197F908950E
:1003D00011F40EF44DC03EC0DADFD0F39923D9F307
:1003E000CEF39F57550B87FF46D00024A0E640EA86
:1003F000900180585695979528F4805C660F771F7A
:10040000881F20F026173707480730F4621B730B4C
:10041000840B202931294A2BA6951794079420256F
:1004200031254A2758F7660F771F881F20F02617B7
:100430003707480730F4620B730B840B200D311D16
:10044000411DA09581F7B901842F9158880F969589
:10045000879508959F3F31F0915020F487957795C7
:100460006795B795880F911D9695879597F908958B
:100470009FEF80EC089591505040660F771F881FC2
:10048000D2F70895A1E21A2EAA1BBB1BFD010DC0D5
:10049000AA1FBB1FEE1FFF1FA217B307E407F50734
:1004A00020F0A21BB30BE40BF50B661F771F881F10
:1004B000991F1A9469F760957095809590959B01A6
:1004C000AC01BD01CF01089505D0332312F48A1B7E
:1004D0009B0B10C0A29FB001B39FC001A39F700DE2
:1004E000811D1124911DB29F700D811D1124911D3C
:1004F0000895F0DFB7FF0895821B930B0895F894D9
:02050000FFCF2B
:00000001FF
