S00F0000454D475F414D532E73726563FC
S113000071C0000086C0000084C0000082C00000EF
S113001080C000007EC000007CC000007AC00000E8
S113002078C0000076C0000074C0000072C00000F8
S113003070C000006EC000006CC000006AC0000008
S113004068C0000066C0000064C0000062C0000018
S113005060C000005EC000005CC000005AC0000028
S113006058C0000056C0000054C0000052C0000038
S113007050C000004EC000004CC000004AC0000048
S113008048C0000046C0000044C0000042C0000058
S113009040C000003EC000003CC000003AC0000068
S11300A038C0000036C0000034C0000032C0000078
S11300B030C000002EC000002CC000002AC0000088
S11300C028C0000026C0000024C0000022C0000098
S11300D020C000001EC000001CC000001AC00000A8
S11300E018C0000011241FBECFEFD1E2DEBFCDBF88
S11300F000E00CBF12E0A0E0B2E0EAEFF4E000E0C0
S11301000BBF02C007900D92A430B107D9F73CD0C1
S1130110F2C176CF9093C5008093C40088E08093A9
S1130120C10086E08093C20008959091C00095FFBD
S1130130FCCF8093C6000895CF93DF93EC0102C0F7
S11301402196F3DF88818111FBCFDF91CF91089550
S113015080E480937C0087E880937A000895ECE73C
S1130160F0E09081907F8F70892B8083EAE7F0E044
S113017080818064808380917A0086FDFCCF8091A9
S11301807800909179000895CF93DF93CDB7DEB7CF
S113019060970FB6F894DEBF0FBECDBF87E690E040
S11301A0B9DFD6DF00E010E0C12CD12C76011AC0F3
S11301B080E0D5DF9C01A8E8B3E151D12FEF33E013
S11301C040E050E02AD1CA01B901645C7940810958
S11301D091099B01AC0112D1C60ED71EE81EF91E6F
S11301E00F5F1F4F003E81E0180710F3C701B601EF
S11301F020EE31E040E050E010D169017A01C701FE
S1130200B6013CD0A5D00ED0DC01CB014AE0BE0142
S11302106F5F7F4F3DD1CE0101968EDF80E092E08B
S11302208BDFC0CF70D088F09F5790F0B92F9927FB
S1130230B751A0F0D1F0660F771F881F991F1AF0ED
S1130240BA95C9F712C0B13081F077D0B1E0089502
S113025074C0672F782F8827B85F39F0B93FCCF383
S1130260869577956795B395D9F73EF490958095E3
S1130270709561957F4F8F4F9F4F0895E89409C003
S113028097FB3EF490958095709561957F4F8F4FC5
S11302909F4F9923A9F0F92F96E9BB279395F695DB
S11302A0879577956795B795F111F8CFFAF4BB0F59
S11302B011F460FF1BC06F5F7F4F8F4F9F4F16C0BD
S11302C0882311F096E911C0772321F09EE8872F47
S11302D0762F05C0662371F096E8862F70E060E003
S11302E02AF09A95660F771F881FDAF7880F96957C
S11302F0879597F9089557FD9058440F551F59F065
S11303005F3F71F04795880F97FB991F61F09F3FFE
S113031079F087950895121613061406551FF2CF27
S11303204695F1DF08C0161617061806991FF1CF77
S113033086957105610508940895E894BB2766279E
S11303407727CB0197F9089511F40EF44DC03EC000
S1130350DADFD0F39923D9F3CEF39F57550B87FFF8
S113036046D00024A0E640EA90018058569597951F
S113037028F4805C660F771F881F20F02617370744
S1130380480730F4621B730B840B202931294A2B54
S1130390A69517940794202531254A2758F7660F08
S11303A0771F881F20F026173707480730F4620BA1
S11303B0730B840B200D311D411DA09581F7B901EC
S11303C0842F9158880F9695879508959F3F31F013
S11303D0915020F4879577956795B795880F911D6F
S11303E09695879597F908959FEF80EC089591501D
S11303F05040660F771F881FD2F70895DB018F9353
S11304009F933CD0BF91AF91A29F800D911DA39F5C
S1130410900DB29F900D11240895A1E21A2EAA1BEB
S1130420BB1BFD010DC0AA1FBB1FEE1FFF1FA217A0
S1130430B307E407F50720F0A21BB30BE40BF50B9D
S1130440661F771F881F991F1A9469F76095709526
S1130450809590959B01AC01BD01CF010895A29FA9
S1130460B001B39FC001A39F700D811D1124911D84
S1130470B29F700D811D1124911D0895F0DFA59F79
S1130480900DB49F900DA49F800D911D112408958B
S1130490BB274A3031F4992322F4BDE2909581952B
S11304A09F4F01C0BB27FB015527AA27880F991F1F
S11304B0AA1FA41710F0A41B83955051B9F7A05D8F
S11304C0AA3308F0A95DA193009779F7B111B1930C
S11304D01192CB0100C0DC01FC01672F71917723DD
S11304E0E1F7329704C07C916D9370836291AE17EB
S10D04F0BF07C8F30895F894FFCF86
S10704FA0D0A0000E3
S9030000FC
